:020000040800F2
:1000000000000320550D00086D1C00086F1C00083F
:10001000711C0008731C0008751C0008000000001B
:10002000000000000000000000000000B181000896
:10003000771C00080000000041820008A58200082B
:10004000A50D0008A50D0008A50D0008A50D0008C8
:10005000A50D0008A50D0008A50D0008A50D0008B8
:10006000A50D0008A50D0008A50D0008A50D0008A8
:10007000A50D0008A50D0008A50D0008A50D000898
:10008000A50D0008A50D0008A50D0008A50D000888
:10009000A50D0008A50D0008A50D0008A50D000878
:1000A000A50D0008A50D0008A50D0008A50D000868
:1000B000A50D0008A50D0008A50D0008A50D000858
:1000C000A50D0008A50D0008A50D0008A50D000848
:1000D000A50D0008A50D0008A50D0008A50D000838
:1000E000A50D0008A50D0008A50D0008A50D000828
:1000F000A50D0008791C0008A50D0008A50D000835
:10010000A50D0008A50D0008A50D0008A50D000807
:10011000A50D0008A50D0008851C0008A50D000808
:10012000A50D0008A50D0008A50D0008A50D0008E7
:10013000A50D0008A50D0008A50D0008A50D0008D7
:10014000A50D0008A50D0008A50D0008A50D0008C7
:10015000A50D0008A50D0008A50D0008A50D0008B7
:10016000A50D0008A50D0008A50D0008A50D0008A7
:10017000A50D0008A50D0008A50D00080000000051
:10018000A50D0008A50D0008A50D0008A50D000887
:10019000A50D0008A50D0008A50D0008A50D000877
:0C01A000911C0008A50D00089D1C000823
:1001B00010B5054C237833B9044B13B10448AFF3A1
:1001C00000800123237010BD6801002000000000A2
:1001D0005C11020808B5034B1BB103490348AFF398
:1001E000008008BD000000006C0100205C110208C6
:1001F00001F0FF01102A2BDB10F0070F08D010F8D8
:10020000013B013A8B422DD010F0070F42B3F6D1DB
:10021000F0B441EA012141EA014122F007047FF0F4
:1002200000070023F0E80256083C85EA010586EA4B
:10023000010685FA47F5A3FA87F586FA47F6A5FA87
:1002400087F68EB9EED1F0BC01F0FF0102F0070293
:1002500032B110F8013B013A83EA010313B1F8D13E
:100260000020704701387047002D06BF354603381F
:10027000073815F0010F07D1013015F4807F02BF58
:10028000013015F4C03F0130F0BC0138704700BFA9
:1002900070B54FF0FF0C4CF4E06C1CEA11541DBF1C
:1002A0001CEA135594EA0C0F95EA0C0F00F0DEF8E7
:1002B0002C4481EA030621EA4C5123EA4C5350EACC
:1002C000013518BF52EA033541F4801143F480131D
:1002D00038D0A0FB02CE4FF00005E1FB02E506F0AE
:1002E0000042E0FB03E54FF00006E1FB03569CF003
:1002F000000F18BF4EF0010EA4F1FF04B6F5007F09
:1003000064F5407404D25FEA4E0E6D4146EB06067A
:1003100042EAC62141EA55514FEAC52040EA5E5003
:100320004FEACE2EB4F1FD0C88BFBCF5E06F1ED8AD
:10033000BEF1004F08BF5FEA500E50F1000041EBE4
:10034000045170BD06F0004646EA010140EA020091
:1003500081EA0301B4EB5C04C2BFD4EB0C0541EAB3
:10036000045170BD41F480114FF0000E013C00F3C8
:10037000AB8014F1360FDEBF002001F0004170BDEC
:10038000C4F10004203C35DA0C341BDC04F1140405
:10039000C4F1200500FA05F320FA04F001FA05F291
:1003A00040EA020001F0004221F0004110EBD3705E
:1003B00021FA04F642EB06015EEA430E08BF20EA8A
:1003C000D37070BDC4F10C04C4F1200500FA04F32D
:1003D00020FA05F001FA04F240EA020001F00041BF
:1003E00010EBD37041F100015EEA430E08BF20EA32
:1003F000D37070BDC4F1200500FA05F24EEA020E7A
:1004000020FA04F301FA05F243EA020321FA04F0A8
:1004100001F0004121FA04F220EA020000EBD3705F
:100420005EEA430E08BF20EAD37070BD94F0000F5F
:100430000FD101F00046400041EB010111F4801F93
:1004400008BF013CF7D041EA060195F0000F18BF44
:10045000704703F00046520043EB030313F4801F80
:1004600008BF013DF7D043EA0603704794EA0C0F3A
:100470000CEA135518BF95EA0C0F0CD050EA410650
:1004800018BF52EA4306D1D181EA030101F00041CD
:100490004FF0000070BD50EA410606BF10461946F5
:1004A00052EA430619D094EA0C0F02D150EA013601
:1004B00013D195EA0C0F05D152EA03361CBF104642
:1004C00019460AD181EA030101F0004141F0FE41E1
:1004D00041F470014FF0000070BD41F0FE4141F465
:1004E000780170BD81F0004102E000BF83F000435D
:1004F00030B54FEA41044FEA430594EA050F08BFBF
:1005000090EA020F1FBF54EA000C55EA020C7FEA82
:10051000645C7FEA655C00F0E2804FEA5454D4EBFF
:100520005555B8BF6D420CDD2C4480EA020281EAC9
:10053000030382EA000083EA010180EA020281EA01
:100540000303362D88BF30BD11F0004F4FEA013153
:100550004FF4801C4CEA113102D0404261EB410162
:1005600013F0004F4FEA03334CEA133302D05242E8
:1005700063EB430394EA050F00F0A780A4F10104A4
:10058000D5F1200E0DDB02FA0EFC22FA05F28018DE
:1005900041F1000103FA0EF2801843FA05F35941C4
:1005A0000EE0A5F120050EF1200E012A03FA0EFC43
:1005B00028BF4CF0020C43FA05F3C01851EBE3716D
:1005C00001F0004507D54FF0000EDCF1000C7EEB8A
:1005D00000006EEB0101B1F5801F1BD3B1F5001FC8
:1005E0000CD349085FEA30004FEA3C0C04F10104E7
:1005F0004FEA445212F5800F80F09A80BCF1004F10
:1006000008BF5FEA500C50F1000041EB045141EA91
:10061000050130BD5FEA4C0C404141EB0101013C5A
:1006200028BFB1F5801FE9D291F0000F04BF014649
:100630000020B1FA81F308BF2033A3F10B03B3F11B
:1006400020020CDA0C3208DD02F1140CC2F10C02AB
:1006500001FA0CF021FA02F10CE002F11402D8BF09
:10066000C2F1200C01FA02F120FA0CFCDCBF41EAD5
:100670000C019040E41AA2BF01EB0451294330BDA4
:100680006FEA04041F3C1CDA0C340EDC04F1140481
:10069000C4F1200220FA04F001FA02F340EA030058
:1006A00021FA04F345EA030130BDC4F10C04C4F19E
:1006B000200220FA02F001FA04F340EA030029467E
:1006C00030BD21FA04F0294630BD94F0000F83F4C8
:1006D000801306BF81F480110134013D4EE77FEAAB
:1006E000645C18BF7FEA655C29D094EA050F08BFF7
:1006F00090EA020F05D054EA000C04BF19461046D8
:1007000030BD91EA030F1EBF0021002030BD5FEA1B
:10071000545C05D14000494128BF41F0004130BD43
:1007200014F580043CBF01F5801130BD01F0004597
:1007300045F0FE4141F470014FF0000030BD7FEA0A
:10074000645C1ABF194610467FEA655C1CBF0B4605
:10075000024650EA013406BF52EA033591EA030F1C
:1007600041F4002130BD00BF90F0000F04BF002114
:10077000704730B54FF4806404F132044FF0000547
:100780004FF0000150E700BF90F0000F04BF0021C0
:10079000704730B54FF4806404F1320410F0004526
:1007A00048BF40424FF000013EE700BF42004FEA21
:1007B000E2014FEA31014FEA02701FBF12F07F439E
:1007C00093F07F4F81F06051704732F07F4208BF55
:1007D000704793F07F4F04BF41F40021704730B55C
:1007E0004FF4607401F0004521F000411CE700BFA8
:1007F00050EA010208BF704730B54FF000050AE02B
:1008000050EA010208BF704730B511F0004502D52B
:10081000404261EB41014FF4806404F132045FEA2D
:10082000915C3FF4D8AE4FF003025FEADC0C18BFD6
:1008300003325FEADC0C18BF033202EBDC02C2F1C8
:10084000200300FA03FC20FA02F001FA03FE40EA5A
:100850000E0021FA02F11444BDE600BF4FF0FF3C48
:1008600006E000BF4FF0010C02E000BF4FF0010CAA
:100870004DF804CD4FEA410C7FEA6C5C4FEA430C23
:1008800018BF7FEA6C5C1BD001B050EA410C0CBF72
:1008900052EA430C91EA030F02BF90EA020F0020D4
:1008A000704710F1000F91EA030F58BF994208BF3B
:1008B00090422CBFD8176FEAE37040F001007047F8
:1008C0004FEA410C7FEA6C5C02D150EA013C07D14F
:1008D0004FEA430C7FEA6C5CD6D152EA033CD3D09A
:1008E0005DF8040B704700BF8446104662468C4694
:1008F0001946634600E000BF01B5FFF7B7FF0028C7
:1009000048BF10F1000F01BD4DF808EDFFF7F4FFEF
:100910000CBF012000205DF808FB00BF4DF808ED7A
:10092000FFF7EAFF34BF012000205DF808FB00BF9D
:100930004DF808EDFFF7E0FF94BF012000205DF8BF
:1009400008FB00BF4DF808EDFFF7CEFF94BF012074
:1009500000205DF808FB00BF4DF808EDFFF7C4FF6D
:1009600034BF012000205DF808FB00BF4FEA4102C0
:1009700012F5001215D211D56FF47873B3EB6252F1
:1009800012D94FEAC12343F0004343EA505311F018
:10099000004F23FA02F018BF404270474FF00000AA
:1009A000704750EA013005D111F0004008BF6FF0E8
:1009B000004070474FF00000704700BF4FEA41020F
:1009C000B2F1E04324BFB3F5001CDCF1FE5C0DD9AD
:1009D00001F0004C4FEAC0024CEA5070B2F1004FF7
:1009E00040EB830008BF20F00100704711F0804FFA
:1009F00021D113F13872BCBF01F00040704741F4BF
:100A000080114FEA5252C2F11802C2F1200C10FAC2
:100A10000CF320FA02F018BF40F001004FEAC123A6
:100A20004FEAD32303FA0CFC40EA0C0023FA02F34A
:100A30004FEA4303CCE77FEA625307D150EA013320
:100A40001EBF4FF0FE4040F44000704701F00040F0
:100A500040F0FE4040F40000704700BF53B94AB96F
:100A6000002908BF00281CBF4FF0FF314FF0FF30B6
:100A700000F06EB9ADF1080C6DE904CE00F006F897
:100A8000DDF804E0DDE9022304B070472DE9F0470A
:100A9000089D04468C46002B40F083808A4217460E
:100AA00047D9B2FA82F242B1C2F1200024FA00F032
:100AB0009140974040EA010C94404FEA1748230CBC
:100AC000BCFBF8F61FFA87FE08FB16C143EA014398
:100AD00006FB0EF1994209D9FB1806F1FF3080F0B0
:100AE0001981994240F21681023E3B445B1AA4B23E
:100AF000B3FBF8F008FB103344EA034400FB0EFE9E
:100B0000A64509D93C1900F1FF3380F00581A645BF
:100B100040F2028102383C4440EA0640A4EB0E0455
:100B200000261DB1D4400023C5E900433146BDE88D
:100B3000F08702B9FFDEB2FA82F2002A50D1CB1B55
:100B40004FEA174E1FFA87F80126B3FBFEFC210C73
:100B50000EFB1C3341EA034108FB0CF38B4207D91F
:100B600079180CF1FF3002D28B4200F2E980844602
:100B7000C91AA3B2B1FBFEF00EFB101143EA014407
:100B800008FB00F8A04507D93C1900F1FF3302D259
:100B9000A04500F2D9801846A4EB080440EA0C40B6
:100BA000BFE78B4209D9002D00F0B1800026C5E9CE
:100BB000000130463146BDE8F087B3FA83F6002ED7
:100BC0004AD18B4202D3824200F2B880841A61EB90
:100BD000030101208C46002DA8D0C5E9004CA5E7F3
:100BE000C2F1200320FA03F6974001FA02F04FEA1F
:100BF000174ED9403043030CB1FBFEF61FFA87F8BD
:100C00000EFB161143EA014306FB08F1994204FA70
:100C100002F409D9FB1806F1FF3C80F08D8099425F
:100C200040F28A80023E3B445B1A81B2B3FBFEF085
:100C30000EFB103341EA034100FB08F38B4207D956
:100C4000791800F1FF3C73D28B4271D902383944D4
:100C5000CB1A40EA064678E7C6F1200C03FA06F400
:100C600022FA0CF31C4320FA0CF701FA06F34FEAC0
:100C7000144E21FA0CF11F433B0CB1FBFEF91FFA95
:100C800084F80EFB191143EA014109FB08FA8A4571
:100C900002FA06F200FA06F308D9611809F1FF30EA
:100CA00048D28A4546D9A9F102092144A1EB0A019B
:100CB000BFB2B1FBFEF00EFB101147EA014700FB8B
:100CC00008F8B84507D9E71900F1FF312ED2B84529
:100CD0002CD90238274440EA0940A7EB0807A0FBBB
:100CE00002894F45C64649461AD317D05DB1B3EBCA
:100CF0000E0267EB010707FA0CFCF2404CEA020215
:100D0000F740C5E9002700263146BDE8F0872E46AA
:100D100028460BE70646E9E61846FDE64345E5D2D8
:100D2000B8EB020E69EB04010138DFE70846D2E7B1
:100D300060468DE78146B9E7664675E730464AE783
:100D4000ACF1020C394413E702383C4424E700BFFD
:100D5000704700BFDFF834D0002103E00C4B5B5834
:100D6000435004310B480C4B42189A42F6D30B4ABD
:100D700002E0002342F8043B094B9A42F9D304F005
:100D800029FA1FF047FA00F015FA70470000032017
:100D900058C10708000000206801002068010020F9
:100DA000045B0120FEE738B5818804460122006813
:100DB00004F0A6FC0A25002008F0A2FB013DFAD1B0
:100DC000A18820682A46BDE8384004F099BCF0B5F7
:100DD00087B00D46BDF830108360044681811868E5
:100DE0001646C26842F002020027C260184606F0AA
:100DF0005BFD3946277527612560A680142201A86E
:100E00001FF04EFA3A463146284604F079FC012399
:100E1000CDE9023301A9022328460196049304F088
:100E200085FB07B0F0BD00002DE9F0418EB0002732
:100E30001E462B4B0097A0F8442015465A6C0164BF
:100E400042F480325A645B6C1C2203F48033044603
:100E50008846009339460DEB0200009B1FF020FAF4
:100E6000A723C4E9013744F62063C4E90337C4F873
:100E70000080A761204606F027FB08B100F058FC6F
:100E8000602240F285230027CDE9072307A92A46DF
:100E9000204609970B9706F081FB08B100F048FC4B
:100EA0000F4B01971A6B42F010021A631B6B0597E8
:100EB00003F010030193019BBDF85030029302230D
:100EC000CDE9033702A903233046069304F02EFB35
:100ED0002946204606F0B4FC0EB0BDE8F08100BF04
:100EE0000038024030B5044689B00D46B0F84410D1
:100EF00006F0A8FC44F62063E360204606F0E4FA1E
:100F00006023CDE90135B4F84420002301A920462F
:100F10000393059306F042FBB4F84410204606F014
:100F20008FFC09B030BD000007B5064BADF80600D8
:100F30001B68054801220DF1060105F0BEFE03B055
:100F40005DF804FB08000020E45601202DE9F04183
:100F50004FF4FA613448354E354F334DFFF7C2FF39
:100F60003448FFF720FF1E2008F0CAFA4FF00108AE
:100F70004FF4FA64A4B2B8F1000F2DD0A4F10B0124
:100F800009B22846FFF7AEFF052008F0B9FAA4F130
:100F9000160109B22846213CFFF7A4FF24B2052020
:100FA00008F0AEFA21462846FFF79CFF052008F01E
:100FB000A7FA3368013333603B68B4F50978A3F1CD
:100FC00004033B6018BF4FF001081A48FFF7EBFE1F
:100FD0001E2008F095FACDE704F10B0109B228466E
:100FE000FFF780FF052008F08BFA04F1160109B223
:100FF00028462134FFF776FF24B2052008F080FA56
:1010000021462846FFF76EFF052008F079FA33687D
:10101000013B33603B6804333B60A4F5FA63D3F1D2
:10102000000848EB0308D0E7F057012088010020B2
:101030000C0000207C58012038B5037F012B0546A9
:101040000FD12B4C227D42BB237503685A62A289C3
:1010500042B91A6A22F00A021A621A6A42F00202BD
:101060001A6238BD042A07D11A6A22F0A0021A6255
:101070001A6A42F02002F3E7082A1A6A0BBF22F428
:10108000206222F420421A621A620BBF1A6A1A6A9C
:1010900042F4007242F40052E2E7012AE1D1A18950
:1010A00006F0D6F81C23B0FBF3F0124B20611A684F
:1010B000114B002143F8321003EBC203A2892175C2
:1010C00058602B682AB91A6A22F00A021A621A6A50
:1010D000C6E7042A03D11A6A22F0A002F6E7082A1A
:1010E0001A6A0CBF22F4206222F42042EEE700BF0D
:1010F0007C5801208801002008590120F0B5A1B0DA
:10110000102200210AA81FF0CBF81422002103A806
:101110001FF0C6F80021302214A81FF0C1F80024E7
:10112000224B01941A6C42F080521A641B6C03F03B
:1011300080530193019B1E4B02941A6842F4404273
:101140001A601B6803F4404302930122029B4FF490
:101150008033CDE9082302254FF48003CDE90E53F7
:1011600008274FF4A873042608A8CDE91073129538
:10117000139605F0C1F80F23CDE903354FF4A051C4
:101180004FF48053CDE9061303A80521059405F01B
:1011900089FAC023189314A84FF4003314971A96B1
:1011A0001D9305F049FB21B0F0BD00BF003802409F
:1011B000007000402DE980489DB004F019F8FFF759
:1011C0009DFF142200210FA800241FF069F8C54BD1
:1011D00002941A6BC448C54DDFF860A342F02002A8
:1011E0001A631A6B02F020020292029A03941A6B9D
:1011F00042F080021A631A6B02F080020392039A93
:1012000004941A6B42F004021A631A6B02F004028F
:101210000492049A05941A6B42F001021A631A6B45
:1012200002F001020592059A06941A6B42F002023E
:101230001A631A6B02F002020692069A07941A6B5E
:1012400042F040021A631A6B02F040020792079ABA
:1012500008941A6B42F010021A631A6B02F0100223
:101260000892089A09941A6B42F008021A631B6BE1
:1012700003F00803099322460421099B04F040FA75
:1012800022469B484FF4405104F03AFA01260227C7
:101290004FF00408944811940FA9CDE90F861297D6
:1012A00004F044F90FA94FF440539148CDE90F36AB
:1012B000CDE9114704F03AF98E488F4B036004F0F2
:1012C00029F88E4A8E4B2C62C5E9002328464FF43C
:1012D0008043C5E90434C5E90244C5E9064404F085
:1012E000F1FB1021284604F02DFE2146284604F08B
:1012F00048FE8448844984624FF48273C0E9001335
:101300004FF400751823C0E906530A23C362C0E9ED
:101310000244C0E90444C0E9084405F091FC7B4A5A
:101320000F97CAE900264FF0100B4022CAE904B219
:101330004FF4C072CAE906244FF40062CAE90824D7
:101340004FF400524FF00309CAF828200FA90722D2
:1013500050460825CAE90248CDE91028CDE913977F
:101360001292159705F092FB4FF6FF720BA95046AB
:10137000CDE90C560A940B960E9405F0A7FB304667
:1013800003F062FF4FF6FF720BA95046CDE90B75D3
:10139000CDE90D6405F09AFB4FF6FF720BA950469C
:1013A000CDE90B95CDE90D8405F090FB4FF40C725F
:1013B0000A920A9A0E920BA94FF6FF725046CDE997
:1013C0000B850D9605F082FB40F26A51504605F000
:1013D00094FB342221460FA81EF062FF4C4D4D4B6A
:1013E000AC86C5E900340923C5E905361D2340F262
:1013F0000D1CC5E9073940F24313C5E909C340F2A2
:10140000171E40F247132846C5E90BE3C5E902441D
:101410002C6185F8364004F059FEFF21F022CDE919
:1014200014144FF4806905214FF4A073CDE9102402
:10143000CDE91691CDE918420FA922462846CDE9FB
:101440001237354D1A930F94ADF86C408DF86E40FD
:1014500004F007FF314B2B601B68DFF8E4A09847CE
:101460002B682F4DDB6898472E4BC5E90A47C5E925
:101470000C442846C5E90034C5E9027403F05AFF5C
:101480003146284604F00EF8274D5A4621460FA84B
:101490001EF006FFA723C5E900A328464FF47A43B0
:1014A000C5E90334AC60AC6105F0F4FF284606F0F2
:1014B00025F80A2322460FA92846CDE90F36CDE9A3
:1014C000114406F005F900F03FFC18491848009453
:1014D0002B464246FFF77BFC202316491648009313
:1014E00022462FE0003802400008024090560120BA
:1014F000000C02403C57012000300240005C0040DC
:10150000A0860100E456012000500140400100A0E7
:101510004457012000680140840100201800002089
:101520003C58012000B002409458012000100240B5
:101530007C58012000400140F0570120D458012080
:10154000002000400A4BFFF76FFC06F07BFA094AC7
:101550000948214606F0B0FA084B094A18602146AE
:10156000084806F0A9FA084B186006F085FAFEE76D
:1015700000100240E81102084D1D000838580120F3
:101580000C1202084D0F0008EC57012070477047FD
:101590007FB5094B8DF817201B6802930DF11702D8
:1015A0000123009201930A460146044804F032FBED
:1015B00007B05DF804FB00BF040000209056012036
:1015C0007FB500238DF81730084B1B6802930A463D
:1015D00001230DF11701009101930146044804F025
:1015E000A9FB9DF8170007B05DF804FB040000207C
:1015F000905601201FB5084C24680092CDE90134B3
:101600000A4601230146054804F094FB003818BF40
:10161000012004B010BD00BF04000020905601203E
:1016200003F012BE08B506480022042104F068F851
:10163000BDE8084002480122042104F061B800BF5F
:101640000008024038B50B4D044601220A484FF409
:10165000005104F055F800220421284604F050F807
:101660002046FFF761FC28460122BDE838400421EE
:1016700004F046B800080240000C024038B50B4D9B
:10168000044600220A484FF4005104F039F80022C1
:101690000421284604F034F82046FFF745FC28468C
:1016A0000122BDE83840042104F02AB800080240B5
:1016B000000C0240F7B5144E144F05460C46304658
:1016C0000022042104F01CF800224FF40051384697
:1016D00004F016F82846FFF727FC0D4B0D481B6851
:1016E000224601A905F07CFC384601224FF4005146
:1016F000019C04F005F830460122042104F000F8B2
:10170000204603B0F0BD00BF00080240000C0240BC
:1017100008000020E456012003F096BD0268034B48
:101720009A4201D103F07EBD704700BF0010004017
:101730007047000082B00E4B00220092596C41F4B9
:1017400080415964596C01F48041009100990192E3
:10175000196C41F0805119641B6C03F080530193A4
:10176000019B0F216FF0010002B003F093BD00BF99
:10177000003802400268094B9A4282B00BD1002324
:101780000193074B1A6B42F480521A631B6B03F4EC
:1017900080530193019B02B0704700BF00300240AC
:1017A0000038024007B50F4B02689A4216D100225A
:1017B000A3F5F0430192196B41F4000119631B6B0F
:1017C00003F40003019305215A20019B03F062FDFD
:1017D0005A2003B05DF804EB03F08EBD03B05DF852
:1017E00004FB00BF00B002402DE9F043044689B07D
:1017F0001422002103A81EF053FD2268244B9A42B4
:1018000043D1244C244800250095236B43F0040366
:101810002363236B03F004030093009B0195236B68
:1018200043F001032363236B03F001030193019B46
:101830004FF012094FF400734FF0010803270426FC
:1018400003A9CDE90339CDE90587079603F06EFEBC
:101850004FF480731148079603A9CDE90339CDE908
:10186000058703F063FE0295236C43F400032364B1
:10187000236C03F400030293029B236A43F40003E6
:101880002362236A23F40003236209B0BDE8F083D6
:10189000005C0040003802400008024000000240A6
:1018A000F0B504468DB01422002107A81EF0F8FC04
:1018B0002268574B9A4240F0A98003F55043002418
:1018C00000945A6C534842F080625A645A6C02F099
:1018D00080620092009A01941A6B42F020021A630F
:1018E0001A6B02F020020192019A02941A6B42F0E4
:1018F00001021A631A6B02F001020292029A039427
:101900001A6B42F002021A631A6B02F0020203928F
:10191000039A04941A6B42F040021A631A6B02F0A5
:1019200040020492049A05941A6B42F004021A636E
:101930001A6B02F004020592059A06941A6B42F0A3
:1019400008021A631B6B03F00803069302250E2698
:10195000069B0B964FF4806307A9CDE90735CDE9C7
:10196000094503F0E3FD41F658032B480B9607A900
:10197000CDE907350927CDE9094503F0D7FD032354
:1019800026480B9707A9CDE90735CDE9094503F0AE
:10199000CDFD4FF4706321480B9607A9CDE90735BB
:1019A000CDE9094503F0C2FD4FF40C631C480B96CA
:1019B00007A9CDE90735CDE9094503F0B7FDC023F7
:1019C00018480B9607A9CDE90735CDE9094503F07D
:1019D000ADFD082314480B9607A9CDE90735CDE9DD
:1019E000094503F0A3FD4FF4A0530D480B9707A939
:1019F000CDE90735CDE9094503F098FD5820224689
:101A0000052103F047FC582003F076FC0DB0F0BD33
:101A1000006801400014024000000240000402403F
:101A20000018024000080240000C024010B50446B5
:101A300088B01422002103A81EF032FC2268154B46
:101A40009A4224D103F5684300220192596C41F473
:101A500080115964596C01F480110191019902922D
:101A6000196B41F0200119631B6B059203F02003F1
:101A700002934FF46071029B0223CDE9031303200C
:101A80000523CDE9060303A9034803F04FFD08B081
:101A900010BD00BF005001400014024010B50446C4
:101AA00088B01422002103A81EF0FAFB2268184B0C
:101AB0009A422AD103F50633002401941A6C154882
:101AC00042F480721A641A6C02F480720192019AD4
:101AD00002941A6B42F001021A631B6B03F00103BC
:101AE00002938022029B0223CDE9032303A9092349
:101AF0000793CDE9054403F019FD2D202246052169
:101B000003F0C8FB2D2003F0F7FB08B010BD00BFA9
:101B100000200040000002402DE9F0412C4B1C68E1
:101B200086B0002C50D14FF00108C3F80080294B3B
:101B300000949A6B284842EA08029A639B6B0394CC
:101B400003EA08030093022703260C25009B01A942
:101B50004FF63F03CDE90137CDE9046503F0E6FC1C
:101B60001E48059501A9CDE90187CDE9034603F09B
:101B7000DDFC48F233131A48059501A9CDE9013778
:101B8000CDE9034603F0D2FC4FF683731548059563
:101B900001A9CDE90137CDE9034603F0C7FC4CF2BA
:101BA00003731148059501A9CDE90137CDE9034635
:101BB00003F0BCFC60230D48059501A9CDE9013770
:101BC000CDE9034603F0B2FC06B0BDE8F08100BFEA
:101BD0008C0100200038024000140240000802403E
:101BE0000018024000100240000C024000040240B5
:101BF00030B5014689B00022362003F04BFB362079
:101C000003F07AFB0025154B02951A6C144C42F038
:101C100010021A641B6C03F01003029301A903A8BD
:101C2000029B04F0EBFD04F0D9FD0E4B236040F263
:101C3000E733E36040000C4BB0FBF3F00138606029
:101C400020462561A56005F025FC20B9204605F059
:101C5000EDFA09B030BD0120FBE700BF00380240BB
:101C6000705A01200010004040420F007047FEE70C
:101C7000FEE7FEE7FEE77047014805F002BB00BF44
:101C800094580120014805F0FCBA00BF705A0120A9
:101C9000014804F089BA00BF44570120014803F00D
:101CA00077BB00BF3C5801200120704708B51EF0EB
:101CB000A3F9162303604FF0FF3008BD08B51EF0EE
:101CC0009BF916230360FEE770B50E461446002507
:101CD000A54201DB204670BDAFF300807055013591
:101CE000F6E770B50E4614460025A54201DB2046F6
:101CF00070BD705DAFF300800135F6E74FF0FF3047
:101D000070474FF400534B6000207047012070472C
:101D10000020704708B50A4B1968024609B90949FD
:101D200019601868694602448A4206D91EF064F9AF
:101D30000C2303604FF0FF3008BD1A60FCE700BFC2
:101D400090010020085B012000F00ABC00F076BC86
:101D5000704710B5042104461DF063F8204610BDFD
:101D600038B50C4B0C4C18800C4B822019806368E2
:101D7000984740F6110398420AD1094D23682C6018
:101D8000822098472B688220DB689847002038BD66
:101D90000120FCE794010020500000209601002063
:101DA000980100204FF4A071F020FFF7D9BF000088
:101DB000F7B52D4D2B6804461B698220984780B2E9
:101DC0002080002843D02B680DF106025B6901A931
:101DD00082209847BDF80620A2F5B47292B20A2A72
:101DE00037D90B23B2FBF3F2204B1B889A4201D95F
:101DF0005A1E92B2BDF8043040F6B8318B422AD850
:101E0000C3F571630E339BB20F21B3FBF1F3184995
:101E100009888B4201D94B1E9BB2164E164D306875
:101E20002F68834281B28CBF591AC91AB8B2BA421C
:101E30008CBF101A801A89B280B201440529C8BF2C
:101E400033603368C8BF2A6063802B68A38003B007
:101E5000F0BD0022CEE7C3F56D6308339BB20E2BB5
:101E6000D2D80023D9E700BF9801002096010020B6
:101E7000940100209C010020A001002037B5684695
:101E80000D461446FFF794FFBDF8000030B1BDF8D1
:101E900002302B60BDF804302360012003B030BD58
:101EA000704770477047012380F8741080F87530D0
:101EB00070470020704700207047836B0BB10846C5
:101EC000184770474FF6FF707047406803689B697A
:101ED000184770477047704700F052BC08B5036858
:101EE0000446DB6F9847236820465B6F984700F0F5
:101EF000EDF823682046DB6E98472920FFF7BEFBEC
:101F000000F0E4F823682046DB6E9847F8E710B548
:101F1000044609F0B9F823682046D3F8A430BDE898
:101F20001040184700F01EBC00F022BC00F046BC78
:101F300000F0F4BB00F046BC00F04EBC00F0F8BB73
:101F400008B531B90A4B0B4A0B484FF42B711EF000
:101F500021F8C0E90F12003A0849436418BF012272
:101F60000A70003B064A18BF0123137008BD00BF6A
:101F70004812020880120208CE120208D253012031
:101F8000D353012008B5094B1B888B4203D8084B5B
:101F90001B88934205D9074B074A08489E211DF02C
:101FA000F9FF074B1980074B1A8008BDC853012061
:101FB000CA5301201313020876130208CE12020836
:101FC000CE530120D053012008F0FCB910B57C217C
:101FD00004461CF026FF204610BD90F877301BB158
:101FE000406803681B6818471846704710B590F89A
:101FF000341090F874400C4B8C421A7809D03AB9DE
:102000000A4A0B491488088810800C8001221A7033
:1020100010BD002AFCD0054A0549148808881080A4
:102020000C800022F3E700BFCC530120C8530120ED
:10203000CA530120012108B50022084605F092FD8F
:102040000A4B186028B90A4B0A4A29210A481DF090
:10205000A1FF00220421012005F04AFE074B186071
:1020600018B9074B034A2D21F0E708BDA80100204D
:102070008C140208D514020804150208A4010020DB
:1020800051150208024B4FF0FF31186805F0C0BD32
:10209000A8010020014B186805F0F4BDA80100203C
:1020A000024B0021186805F0B3BD00BFA801002055
:1020B000FFF7F0BF03480449006800231A4605F003
:1020C0005DBE00BFA40100201000002013B5084C25
:1020D00000231A4601A9206805F092FE20684FF0FF
:1020E000FF33002201A905F08BFE02B010BD00BF36
:1020F000A401002003685B6C184701207047036847
:102100009B6A184782B0002301930D4B1A6B42F46F
:1021100000021A631A6B02F400020192019A1A6912
:1021200042F400021A611A6922F400021A61054B96
:10213000054A1A61054B4FF080629A6002B0704701
:10214000003802403C5801205921000800E100E01D
:1021500040F2EF3070470000024B1B68586803687C
:102160005B691847D453012008B50B280BD8DFE86A
:1021700000F01206100A0A0A0A08080808080120D6
:1021800008BD0520FCE7054B054A064867211DF000
:1021900001FF0020F4E70220F2E700BF93150208D8
:1021A000AE150208F815020808B50A2809D8DFE8B4
:1021B00000F010060E0808080806060606000120B2
:1021C00008BD054B054A064888211DF0E3FE0020A6
:1021D000F6E70220F4E700BF931502084316020851
:1021E000F81502082DE9F84391F81D800C46404689
:1021F000FFF7BAFFA77F05463846FFF7B5FF06464B
:102200003846FFF7D1FFA18A628B4B4B521A1A64F2
:102210009A61228B521A1A61E28A586342EA014299
:102220005A6421696268D963DA60D4F800C094F80E
:102230001C90BCF1800F4FEA09629E4630D014D842
:10224000BCF1200F45EA020068D0BCF1400F65D018
:10225000BCF1040F20D0384B2A4342F40032B84579
:10226000DA6148D140F2012214E0BCF5807F07D04A
:10227000BCF5007FEFD142F4003242F0090203E0E6
:1022800042F4003242F00A02DA61E2681A625E62E7
:1022900059612A4A1A604CE040F40030D861F6E7F0
:1022A000A0682A4342F40032041DDC62DA6102783D
:1022B0005E62596142B1012A1FD0214B214A224856
:1022C0004FF489711DF066FE4288D969501E21F4D1
:1022D0007F4222F0100242EA0022DA610124164B0A
:1022E000DA6942F02002DA61DA699206FCD410223F
:1022F0009A60002CCDD1154ACCE74288D969501E8E
:1023000021F47F4222F0100242EA0022B9F1FF04D8
:1023100042F0100218BF0124DA61E0E7074B40F4F5
:102320000030CEF81C00CEF82460CEF81410CEF8A1
:102330000030BDE8F88300BF00B002400102020097
:102340008E160208A8160208F815020801020100FC
:1023500038B50C46887FFFF727FFA58AE18A164B20
:10236000628B586341EA05415964521B2169D96364
:102370001A642568082D0ED19A611A615862207F6F
:102380000E4A42EA0062DA61E2681A620C4A596156
:10239000D9601A6038BD0022D8611A61E1680A0A62
:1023A000480902F4784200F4FC600243C1F3C4011E
:1023B0000A439A63034AECE700B0024009000100B7
:1023C0000102020001020300054B0360054B4FF0C0
:1023D0008062C3F88820BFF34F8FBFF36F8F7047C1
:1023E000F016020800E100E010B50446FFF7ECFF2C
:1023F00020464FF442611CF014FD204610BD000041
:1024000070B5044625460A4B0C30002660602672E3
:10241000667245F8203B6022294608F06BFF04F500
:102420004263EE602035AB42FBD1204670BD00BF59
:10243000F0160208012070470C2070470C2303FBA4
:102440000100083070470C2303FB0100083070477F
:102450000120704743F2B440704743F2B44303FB9A
:1024600001000830704743F2B44303FB0100083019
:102470007047012070471020704700EB01100830B2
:10248000704700EB011008307047084600F0C8BAEA
:1024900010B5034B0360044607F0C4FC204610BD92
:1024A000A817020810B50446FFF7F2FF20461421D2
:1024B0001CF0B7FC204610BD10B5034B036004466A
:1024C00007F0B0FC204610BD7417020810B5044692
:1024D000FFF7F2FF204643F2BC411CF0A2FC20466D
:1024E00010BD000010B5034B0360044607F09AFCD2
:1024F000204610BD4017020810B50446FFF7F2FF52
:10250000204618211CF08DFC204610BD10B5094B4B
:102510000360044600F553502830FFF7B9FF04F17B
:102520002C00FFF7C9FF04F11400FFF7DBFF204682
:1025300010BD00BFDC17020808B50248FFF7E6FF30
:1025400008BD00BFB001002010B50446FFF7DEFF54
:10255000204643F258611CF064FC204610BD000088
:102560002DE9F34100F09EF9054600F09FF90024A3
:10257000014623462846224600940EF0DFFF234BF7
:10258000234A244D1A60204600F0C8FC22480EF071
:1025900017FF2B78BFF35B8FDB0731D428461CF085
:1025A00042FC68B31D4C1E4F1E4B236004F554566D
:1025B00004F1140004F12C086060C4F80880E7609E
:1025C000266107F031FC184B6361404607F02CFC94
:1025D000164BE362384607F027FC154B3B60301F73
:1025E00002F0E8F82246311F304602F0D9F83046B2
:1025F00000F016FA28461CF022FC0E481DF0E8FCFC
:102600000D4802B0BDE8F041FFF766BC5054012010
:10261000A8440020AC01002014000020B0010020DC
:1026200098360020DC1702084017020874170208C9
:10263000A8170208392500082C4400200148FFF79C
:102640004DBC00BF2C44002070B5244C244E254BBB
:10265000254D23603046FFF7D3FE284612F03EF8A2
:10266000224B2348DC6000224FF48071C3E9121230
:10267000204C21490360F020C3E9191220804FF05B
:1026800080711E4C59670121C3E90422C3E9062267
:10269000C3E90822C3E90E22C3E91022C3E91422C8
:1026A000C3E916221A8583F82A20DA621A861A6686
:1026B00083F86C201A67C3E9016583F878102080DD
:1026C0000F4C83F834104FF4A07020800D4C208004
:1026D0000D4802700D4A1A6070BD00BF0838002016
:1026E0000C38002038120208AC4400202C44002092
:1026F000D4530120C853012001000001CE53012012
:10270000CA530120D0530120CC530120C413020826
:102710000148FFF759BE00BF0C380020034B902240
:1027200083F85A2383F85823704700BF00E100E084
:10273000094A0A49D3680A48C3F30A03013B9BB21A
:102740000B801169C1F30A01013901801364536BD5
:1027500043F00103536370470068014026450020A1
:1027600024450020014B986A704700BF84680140EF
:10277000024B0122996243F8602C70478468014043
:1027800070B5044607F073FE23681D6E0CF0C6F9A1
:1027900001462046A8472368054AD3F884502046BE
:1027A000AC460023BDE87040A2F51631604700BF7B
:1027B000005802D007F042BE07F04CBE07F008BE3A
:1027C00007F063BF034B4FF080629A604FF0807256
:1027D0009A60704700E100E0084B4FF08062C3F858
:1027E0008820BFF34F8FBFF36F8F4FF08072C3F815
:1027F0008820BFF34F8FBFF36F8F704700E100E079
:10280000134B144A1B6C11888B4210B5124C13D118
:10281000124B198803F052FD226892F8663001339A
:1028200082F86630FFF746FC206808F02DFCBDE812
:1028300010400020FFF734BB03F040FD0020FFF7FD
:1028400030FB20680368BDE810401B6A184700BFD2
:102850000068014026450020D45301202445002073
:10286000704710B5042104461CF0DBFA204610BD69
:1028700008B5032913D8DFE801F002060A0E00F0BC
:1028800099FB006808BD00F095FB4068FAE700F08E
:1028900091FB8068F6E700F08DFBC068F2E700204E
:1028A000F0E7000000487047FC170208032070475B
:1028B00013B5002451B1036801948DF8034001AAB7
:1028C0009C680DF10303A04702B010BD0846FBE76A
:1028D00040897047808970478088704783798088F5
:1028E000184480B27047C07900F07F007047C0790B
:1028F000C0097047704710B5082104461CF091FAD2
:10290000204610BD704700F596730868496803C3F8
:1029100070477047704741607047704701230372EA
:1029200070477047704710B4C2684168541003463E
:1029300001EB6200D20748BF0A599B685DF8044B5F
:1029400048BFD358184743682BB183682BB9C06878
:1029500000F001007047184670470120704710B51D
:102960000C2104461CF05DFA204610BD10B5102164
:1029700004461CF056FA204610BD10B54FF4AC7159
:1029800004461CF04EFA204610BD10B50CF0C6F8F7
:102990000368BDE810401B6B184710B50446D0F81B
:1029A0003C0158B10368DB68984738B1D4F83C0162
:1029B00003689B6898470023C4F83C3110BD0000B1
:1029C000F8B5044617460E460CF0C8F8104B002523
:1029D000C4E954760F4E1C60C4E952550E4B306862
:1029E00023600E4BC4E95035036829469B68C4E94F
:1029F0004E559847284600F091FA336893F87620B0
:102A00000AB1D86C00B9986813F0B3FC2046F8BD41
:102A100040540120D4530120841B02086C1B02087F
:102A2000064BC0F848310023C0F84C3100F5A073C4
:102A3000C0F84401C0F83C31704700BF812B00084A
:102A40002DE9F84F07469068DDF828A099460368FD
:102A50001B6A88461446984743F2B343984205D808
:102A6000414B424AA32142481DF094FA6068036832
:102A70001B6A98470F2803D83E4B3C4AA421F2E733
:102A8000E06803681B6A98470B2803D83A4B374A1B
:102A9000A521E8E70CF042F80CF046F8D9F8000060
:102AA00010B10368DB689847D9F8000010B10368DB
:102AB0001B689847386810B103685B699847D8F875
:102AC000000010B103685B689847386810B103686C
:102AD0001B689847D8F8000010B103689B689847B6
:102AE000E068036800215B6A98474FF0000B234BB6
:102AF00003600546C0F804B080F808B0A068036819
:102B000059465B6A9847064602F0BAF8606803685F
:102B100059465B6A98473146044601F05DFEC9F8A4
:102B20000050C8F800403E60E4B1231DCAF80030F0
:102B30003368C4F808A03046DB68F463984723681C
:102B400020461B689847294630460DF085FC2B68C7
:102B500028461B6998472B6828465B69984720469A
:102B6000BDE8F88F2346E1E748180208D6180208A6
:102B7000D41902081B1A0208BE1A0208C81B020850
:102B800007B5D0F854310093D0F85021044B00F52C
:102B90009C710448FFF754FF03B05DF804FB00BFCD
:102BA0003454012030540120006A7047406A704755
:102BB00070478B8880690A68DB0A50F8230010444C
:102BC000704710B5C2B1137BB3B1547BD27A2402E3
:102BD00004F4E0641443C26998B202EB84021388DF
:102BE0008B4202D192F9020010BD05D8013880B2A3
:102BF00004320028F3D1F7E70020F5E710B52821CB
:102C000004461CF00EF9204610BD000030B589B016
:102C10000446BDF850500695BDF84C5005959DF8FA
:102C2000405004959DF83C5003959DF8385002950E
:102C30009DF8345001959DF8305000950CF09AFFA6
:102C4000064B2360119BA361129BE361159B2362DA
:102C5000169B6362204609B030BD00BFEC1B020822
:102C60007047000030B5154D2C78BFF35B8F14F022
:102C700001048DB01FD128461CF0D5F8D8B13F23F0
:102C800007930F4B06930F4B0F4910480894CDE95B
:102C9000044301220423CDE90132CDE909440C2388
:102CA000092203940094FFF7B1FF28461CF0C7F8EF
:102CB00007481DF08DF905480DB030BD28450020AE
:102CC000F856020808570208945502082C450020BF
:102CD000612C00087047000030B5154D2C78BFF30B
:102CE0005B8F14F001048DB01ED128461CF09BF8B8
:102CF000D0B13F2307930F4B06930F4B0F4910485A
:102D000008940122CDE904430423CDE90132CDE941
:102D100009440A2303940094FFF778FF28461CF027
:102D20008EF808481DF054F905480DB030BD00BFBD
:102D300054450020FC5602080C570208145602089D
:102D400058450020D52C00087047000030B5154DBF
:102D50002C78BFF35B8F14F001048DB01FD128468F
:102D60001CF061F8D8B13F2307930F4B06930F4B2C
:102D70000F4910480894CDE9044301220423CDE90A
:102D8000013200930E221423CDE909440394FFF786
:102D90003DFF28461CF053F807481DF019F9054877
:102DA0000DB030BD804500200057020810570208C2
:102DB0002456020884450020492D00087047000071
:102DC00030B5154D2C78BFF35B8F14F001048DB036
:102DD0001ED128461CF027F8D0B13F2307930F4B94
:102DE00006930F4B0F49104808940122CDE9044384
:102DF0000423CDE90132CDE909442823039400944A
:102E0000FFF704FF28461CF01AF808481DF0E0F808
:102E100005480DB030BD00BFAC4500200457020886
:102E200014570208E8560208B0450020BD2D0008DE
:102E300000207047002070470EB403B503AB00219B
:102E400053F8042B01930CF0CBFC02B05DF804EBBB
:102E500003B070470CB407B504AB53F8042B0193CF
:102E60000CF0BEFC03B05DF804EB02B0704700004C
:102E7000436C10B5044673B3038F2BB9184B194A32
:102E8000C02119481DF086F8C38E00EB43035B8C0C
:102E90000BB30EF04FF8238F012B03D8134B144ABA
:102EA000C521EEE7E28E531C9BB2092B194688BF61
:102EB000A3F10A0104EB410140F63F10498C814225
:102EC00009D10A2B04EB420228BF002304EB430381
:102ED000508C588451842046BDE810400DF00EBF40
:102EE0003C1C0208451C0208F01C02083A1D02089E
:102EF000481D02080DF0BABE10B586B002AC84E8D9
:102F000006001A460AAB05930193099B00932146DC
:102F1000089B0BF080F906B010BD000038B518BB57
:102F2000124B13481B681349B3B11A689C681A44C2
:102F300002605A681A440A601C440F4B00221A802F
:102F400000F038F8054600F033F80C4B1C600C4BD1
:102F50001D600C4B188007E00B4B03600B4B0B60A4
:102F60000B4B1C68002CE8D138BD00BFD8450020B1
:102F7000DC450020E0450020E445002044540120C9
:102F80004C540120485401203857020818570208B1
:102F900090570208044B1B6853F82100034B1B6831
:102FA00003EB4000704700BFE0450020DC450020F7
:102FB0000820704700487047E845002010B5FFF72B
:102FC000C5FE064C2060FFF7FBFE6060FFF784FE45
:102FD000A060FFF747FEE06010BD00BFE84500209D
:102FE0000020704781807047C18070470181704721
:102FF000418170477047704770477047704710B401
:10300000C4880368121B84881B6D091B12B25DF80B
:10301000044B09B218474FF6FF7383814FF0FF331B
:1030200003621368C3611060704770477047704750
:103030007047704790F825201AB190F8242002B10B
:103040001860704780F82E10704790F82E00704777
:103050007047704770470320704702299EBF00EBFE
:103060008101CA648B65704702299ABF00EB810118
:10307000C86C0020704702299ABF163150F8210011
:103080000020704702299EBF00EB81014A660B6752
:10309000704702299ABF00EB8101486E00207047FB
:1030A00002299ABF1C3150F821000020704710B54A
:1030B0007C2104461BF0B5FE204610BD10B543F23E
:1030C000B44104461BF0ADFE204610BD70B5036848
:1030D0000446DB6A154698472368294620461B6B41
:1030E000BDE87040184770B504461D46BDF9106034
:1030F000FFF7ECFF2368294620465B6B984723685F
:10310000314620469B6BBDE870401847094A026073
:103110004FF4807100228184FF21C0E90122C0E9BF
:103120000322C0E90522C0E9072280F82610826246
:10313000704700BF843202084FF4807181840B49CC
:1031400001600B4981624FF6FF71002281854FF4C7
:103150007F01C0E90122C0E90322C0E90522C0E9DC
:103160000722026341630287704700BFDC31020817
:103170004018020870B5FF22134E0272134A026013
:10318000326892F876100023C0E9033304464360A6
:1031900009B1D06C00B9906803685B6A98473368DE
:1031A000B0FA80F5D86C6D0928B103685B6A98475E
:1031B000002808BF01252DB9054B064A06482C21D9
:1031C0001CF0E8FE204670BDD4530120582D0208A3
:1031D0001A1E0208781E0208B11E020810B5044625
:1031E00008F0A2F9084B23600023C4E91333C4E9B3
:1031F0001533C4E91733C4E91933C4E91B33C4E9EF
:103200001D33204610BD00BF1C1F020810B4046C03
:10321000B4EB411F4FEA411204D05DF8044B026445
:1032200009F08AB85DF8044B704700000000000008
:103230002DE9F04F2DED108B0446ADF2647D0CF0BE
:103240005FFF22460025E04BE56342F8403B104615
:103250000FEE102AFFF75AFF04F16C03184636935D
:10326000FFF754FF04F198030FEE903ACAA94FF606
:10327000FF731FEE900AADF8283309F05FFA04F1EE
:10328000C40318461793FFF757FF04F580731846D9
:103290001893FFF7A3FF04F5BE731846CB4E349383
:1032A000FFF768FF04F5CA73C4F87C61C4F8905155
:1032B00018461993FFF792FF04F5047318463793E5
:1032C000FFF758FF04F50A73C4F81062C4F82452DB
:1032D00018461A93FFF782FF04F5297318463893AE
:1032E000FFF748FF04F52F73C4F8A462C4F8B8527E
:1032F00018461B93FFF772FF04F54E7318463A9376
:10330000FFF738FF04F55473C4F83863C4F84C531E
:1033100018461C93FFF762FF04F5737318463C933D
:10332000FFF728FF04F57973C4F8CC63C4F8E053C1
:1033300018461D93FFF752FF04F58C6318463D9322
:10334000FFF718FF04F58F63C4F86064C4F8745481
:1033500018461E93FFF742FF04F2F44318463E93CB
:10336000FFF708FF04F20C53C4F8F464C4F80855DE
:1033700018461F93FFF732FF04F5B16318463F93D9
:10338000FFF7F8FE04F5B463C4F88865C4F89C55EB
:1033900018462093FFF722FF04F21C63184640935F
:1033A000FFF7E8FE04F23463C4F81C66C4F8305634
:1033B00018462193FFF712FF04F5D6631846419390
:1033C000FFF7D8FE04F5D963C4F8B066C4F8C45654
:1033D00018462293FFF702FF04F244731846429303
:1033E000FFF7C8FE04F25C73C4F84467C4F858578A
:1033F00018462393FFF7F2FE04F5FB631846439348
:10340000FFF7B8FE04F5FE63C4F8D867C4F8EC57BC
:1034100018462493FFF7E2FE04F66C031846449323
:10342000FFF7A8FE04F68403C4F86C68C4F880585B
:1034300018462593FFF7D2FE04F51063184645930E
:10344000FFF798FE04F61813C4F80069C4F814597D
:1034500018462693FFF7C2FE04F6941318464693C7
:10346000FFF788FE04F6AC13C4F89469C4F8A859B1
:1034700018462793FFF7B2FE04F628231846479311
:10348000FFF778FE04F52463C4F8286AC4F83C5AB0
:1034900018462893FFF7A2FE04F6BC23184648936B
:1034A000FFF768FE04F6D423C4F8BC6AC4F8D05A07
:1034B00018462993FFF792FE04F5356318464993A1
:1034C000FFF758FE04F66833C4F8506BC4F8645B29
:1034D00018462A93FFF782FE04F6E43318464A930F
:1034E000FFF748FE04F6FC33C4F8E46BC4F8F85B5D
:1034F00018462B93FFF772FE04F6784318464B9359
:10350000FFF738FE04F54963C4F8786CC4F88C5CA6
:1035100018462C93FFF762FE04F60C5318464C93A2
:10352000FFF728FE04F62453C4F80C6DC4F8205DA0
:1035300018462D93FFF752FE04F55A6318464D9333
:10354000FFF718FE04F6B853C4F8A06DC4F8B45DD4
:1035500018462E93FFF742FE04F6346318464E9346
:10356000FFF708FE04F64C63C4F8346EC4F8485EF6
:1035700018462F93FFF732FE04F6C86318464F93A0
:10358000FFF7F8FD04F56E63C4F8C86EC4F8DC5E9E
:1035900018463093FFF722FE04F65C7318465093EA
:1035A000FFF7E8FD04F67473C4F85C6FC4F8705F4D
:1035B00018463193FFF712FE04F57F6318465193C6
:1035C000FFF7D8FD04E000BFB41F0208E82B020893
:1035D00041F20403C4F8F06FE55004F5805308335A
:1035E00041F2840718460393FFF7F8FDE3191846E4
:1035F0005A93FFF7BFFD41F29803E651E55004F5F9
:1036000084531C3341F2181718460493FFF7E6FD64
:10361000E31918465B93FFF7ADFD41F22C13E65119
:10362000E55004F58953103341F2AC171846059361
:10363000FFF7D4FDE31918465C93FFF79BFD04F5F3
:103640008E530433E65104F5925943F8045C18464E
:103650000693FFF7C3FD4846FFF78CFD41F2542364
:10366000C9F80060E5504B46183341F2D42718469C
:103670000793FFF7B3FDE31918465D93FFF77AFD53
:1036800041F2E823E651E55004F597530C3341F23B
:10369000683718460893FFF7A1FDE31918465E93B3
:1036A000FFF768FD41F27C33E651E55004F59C5389
:1036B00041F2FC3718463293FFF790FDE3191846A4
:1036C0005F93FFF757FD41F21043E651E55004F5D3
:1036D000A053143341F2904718460993FFF77EFD3B
:1036E000E31918466093FFF745FD41F2A443E65104
:1036F000E55004F5A553083341F2245718460A93C0
:10370000FFF76CFDE31918466193FFF733FD41F2B3
:103710003853E651E55004F5A9531C3341F2B8572C
:1037200018460B93FFF75AFDE31918466293FFF70B
:1037300021FD41F2CC53E651E55004F5AE53103370
:1037400041F24C6718460C93FFF748FDE319184601
:103750006393FFF70FFD04F5B3530433E65143F8C9
:10376000045C04F5B75718460D93FFF737FD38464C
:10377000FFF700FD41F2F4633E60E5503B4618332D
:1037800041F2747818460E93FFF728FD04EB080306
:1037900018465293FFF7EEFC41F2887344F8086034
:1037A000E55004F5BC530C3341F6080818460F9356
:1037B000FFF714FD04EB080318465393FFF7DAFCF8
:1037C00041F61C0344F80860E55004F5C15341F686
:1037D0009C0818463393FFF701FD04EB08031846D5
:1037E0005493FFF7C7FC41F6B00344F80860E55076
:1037F00004F5C553143341F6301818461093FFF7FB
:10380000EDFC04EB080318465593FFF7B3FC41F6B3
:10381000441344F80860E55004F5CA53083341F6F0
:10382000C41818461193FFF7D9FC04EB0803184697
:103830005693FFF79FFC41F6D81344F80860E55013
:1038400004F5CE531C3341F6582818461293FFF75F
:10385000C5FC04EB080318465793FFF78BFC41F6B1
:103860006C2344F80860E55004F5D353103341F657
:10387000EC2A04EB0A0818461393FFF7AFFC404606
:10388000FFF778FC04F5D85344F80A60043343F892
:10389000045C41F6503A184609EE103A07F0ECFF86
:1038A00004EB0A0318466993FFF764FC41F664339E
:1038B00044F80A60E55004F5DB53083341F6B43AA6
:1038C000184609EE903A07F0D7FF04EB0A031846B2
:1038D0006893FFF74FFC41F6C83344F80A60E5509F
:1038E00004F5DE530C3341F6184A18460AEE103A36
:1038F00007F0C2FF04EB0A0318466793FFF73AFC90
:1039000041F62C4344F80A60E55004F5E1531033C6
:1039100041F67C4A18460AEE903A07F0ADFF04EBF8
:103920000A031846669304F5E45BFFF723FC41F6AF
:1039300090430BF1140B44F80A605846E55041F6E9
:10394000085A08F0D9FC04EB0A0318466593FFF700
:1039500011FC41F61C5344F80A60E55004F5E953A4
:1039600041F6945A18460BEE103A08F0C5FC04EBE9
:103970000A0318466493FFF7FDFB44F80A6041F61A
:10398000A85304F5ED5A0AF10C0AE550504608F028
:10399000B3FC04F5F15318465993FFF7EBFB599B21
:1039A0001E6041F63463F026E55004F5F1531833F8
:1039B00018461493FFF7AAFB04F5F3530433184693
:1039C0000BEE903AFFF7B8FB04F5F5531846589301
:1039D000FFF79CFB04F5F6530C3318460CEE103A37
:1039E000FFF7AAFB04F5F853083318461593FFF7C1
:1039F0008DFB04F5F953143318460CEE903AFFF79B
:103A00009BFB04F5FB53103318461693FFF77EFB20
:103A100004F5FC531C3318460DEE103AFFF78CFBEF
:103A200004F5FE53183318460DEE903AFFF784FB69
:103A300004F50053143318460EEE103AFFF77CFBE2
:103A400004F50153103318460EEE903AFFF774FB5D
:103A500042F28C03189AE25042F29003199AE25013
:103A600042F294031A9AE25042F298031B9AE250EF
:103A700042F29C031C9AE25042F2A0031D9AE250CB
:103A800042F2A4031E9AE25042F2A8031F9AE250A7
:103A900042F2AC03209AE25042F2B003219AE25083
:103AA00042F2B403229AE25042F2B803239AE2505F
:103AB00042F2BC03249AE25004F50353259A1A609B
:103AC00042F2C403269AE25042F2C803279AE25017
:103AD00042F2CC03289AE25042F2D003299AE250F3
:103AE00042F2D4032A9AE25042F2D8032B9AE250CF
:103AF00042F2DC032C9AE25042F2E0032D9AE250AB
:103B000042F2E4032E9AE25042F2E8032F9AE25086
:103B100042F2EC03309AE25042F2F003319AE25062
:103B200042F2F403039AE25042F2F803049AE2509C
:103B300042F2FC03059AE25004F50453069A1A6017
:103B400042F20413079AE25042F20813089AE25034
:103B500042F20C13329AE25042F21013099AE250E8
:103B600042F214130A9AE25042F218130B9AE250EE
:103B700042F21C130C9AE25042F220130D9AE250CA
:103B800042F224130E9AE25042F228130F9AE250A6
:103B900042F22C13339AE25042F23013109AE25060
:103BA00042F23413119AE25042F23813129AE25060
:103BB00042F23C13139AE25004F50553349A1A600A
:103BC00042F24413379AE25042F24813389AE250D4
:103BD00042F24C133A9AE25042F250133C9AE250AD
:103BE00042F254133D9AE25042F258133E9AE25088
:103BF00042F25C133F9AE25042F26013409AE25064
:103C000042F26413419AE25042F26813429AE2503F
:103C100042F26C13439AE25042F27013449AE2501B
:103C200042F27413459AE25042F27813469AE250F7
:103C300042F27C13479AE25004F50653489A1A6000
:103C400042F28413499AE25042F288134A9AE250AF
:103C500042F28C134B9AE25042F290134C9AE2508B
:103C600042F294134D9AE25042F298134E9AE25067
:103C700042F29C134F9AE25042F2A013509AE25043
:103C800042F2A413519AE25042F2A8135A9AE25017
:103C900042F2AC135B9AE25042F2B0135C9AE250EB
:103CA00042F2B4135D9A44F8039042F2B81304F55B
:103CB0000750E25042F2BC135E9AE25004F50753FB
:103CC0005F9A1A6042F2C413609AE25042F2C8133B
:103CD000619AE25042F2CC13629AE25042F2D0135F
:103CE000639AE25042F2D413529AE75042F2D81348
:103CF0004FF49651E25042F2DC13539AE25042F2F2
:103D0000E013549AE25042F2E413559AE25042F220
:103D1000E813569AE25042F2EC13579AE25042F2FC
:103D2000F013343044F8038009F0A8F92A462946F4
:103D30001FEE100A4FF4A0730096FFF7D4F94FF06E
:103D40007F432A4629463698A36600964FF4A0730F
:103D5000FFF7C9F99E4BC4F894301FEE900A012377
:103D6000CAA9ADF8283309F016F9422306221FEE3E
:103D7000900A009317215023FFF7B5F929461FEE4B
:103D8000900A08F0A1FC17981B227621FFF79EF9F4
:103D90004FF0FF33C4F8F430A4F8F8508D4B179867
:103DA000CA93CAA9ADF82C5309F0B4F8189B7093C4
:103DB000199B71931A9B72931B9B73931C9B749317
:103DC0001D9B75931E9B76931F9B7793209B7893E7
:103DD000219B7993229B7A93239B7B93249B7C93B7
:103DE000259B7D93269B7E93279B7F93289B809387
:103DF000299B81932A9B82932B9B83932C9B849357
:103E00002D9B85932E9B86932F9B8793309B889326
:103E1000319B8993039B8A93049B8B93059B8C9383
:103E2000069B8D93079B8E93089B8F93329B909359
:103E3000099B91930A9B92930B9B93930C9B949356
:103E40000D9B95930E9B96930F9B9793339B989303
:103E5000109B9993119B9A93129B9B93139B9C93FA
:103E6000349B9D93379B9E93389B9F933A9BA09343
:103E70003C9BA1933D9BA2933E9BA3933F9BA4930A
:103E8000409BA593419BA693429BA793439BA893DA
:103E9000449BA993459BAA93469BAB93479BAC93AA
:103EA000489BAD93499BAE934A9BAF934B9BB0937A
:103EB0004C9BB1934D9BB2934E9BB3934F9BB4934A
:103EC000509BB593519BB6935A9BB7935B9BB8930A
:103ED0005C9BCDE9B9395D9BBB935E9BBC935F9BBB
:103EE000BD93609BBE93619BBF93629BC093639B9A
:103EF000CDE9C137529BC393539BC493549BC59345
:103F0000559BC693569BC793579BCDE9C83870AB5A
:103F1000A8460DF54A793793B4252846FCF734FCBA
:103F200029A3D3E90023FCF7B3F941EC100B41ECD2
:103F3000180B1AF0A1FF57EC106BB0EE480AF0EE28
:103F4000680A1AF0E9FF043D28468DED340BFCF7B2
:103F50001BFC1DA3D3E90023FCF79AF941EC100BDD
:103F600041EC180B1AF088FF8DED380BB0EE480AC3
:103F7000F0EE680A1AF0D0FF174B0022304639469F
:103F80008DED3A0BFCF784F9134B0022FCF7B0FAE5
:103F9000FCF714FD104BC9F800000022DDE93401E4
:103FA000FCF776F902460B4600200C49FCF79EFA16
:103FB000FCF704FD084BC9F804000022DDE93801D4
:103FC0000EE000BFAFF3008011E7FAA146DF913F9A
:103FD000070307FF401802080000644000006E401D
:103FE000FCF756F93E4B0022FCF782FAFCF7E6FCA0
:103FF0003B4BC9F808000022DDE93A01FCF748F91B
:1040000002460B4600203749FCF770FAFCF7D6FC55
:1040100008EB481303F50973A9F81030379BC9F86A
:104020000C0053F8046B37930022F02300931146E1
:104030004FF4A0733046FFF756F8336B0BB9736B30
:104040002BB10023C6E90C33304607F083FA4FF456
:104050008063C6E90F33304607F07CFAB36B23B1B7
:104060000023B363304607F075FA9DAB304653F832
:1040700028101D4B4B613368DB6D9847DFF86CC02F
:10408000BCE80F006AAF0FC79CE80300336887E8FD
:1040900003005B6F304698476AAF38903497002131
:1040A000349B08333493389B8B4221DD33683A913B
:1040B0009B6F1F46349B13ED017A53ED027AF0EEAD
:1040C000476AB0EE677AFEEEED6ABEEEED7A16EE66
:1040D000903A17EE102A3046B8473A990131DFE797
:1040E0000000644000006E400000FFFF78110208ED
:1040F000304607F02FFA08F1010809F11809002DE0
:104100007FF40BAFF02319EE100A00932A462946DC
:104110004FF4A073FEF7E7FF41F634334FF4A05796
:10412000E75041F638334FF4F05944F8039041F624
:104130003C332022E75041F6483319EE100AE25092
:1041400004F5DA534FF434521D6041F64433B42180
:10415000E25007F0A9FB41F664334FF0FF36E6501A
:10416000699919EE100A07F012FF19EE103A4FF094
:10417000780883F82E80F02319EE900A00932A46DF
:1041800029464FF4A073FEF7AEFF41F698334FF483
:104190007062E75041F69C3319EE900A44F80390A0
:1041A00004F5DD53B4211A6041F6AC332022E2500D
:1041B00041F6A4334FF43452E55041F6A833E250AF
:1041C00007F072FB41F6C8336899E65019EE900A81
:1041D00007F0DDFE19EE903A83F82E80F0231AEEF8
:1041E000100A00932A4629464FF4A073FEF77BFF7E
:1041F00041F6FC334FF42062E75004F5E0531AEE29
:10420000100AC3F8009041F60443B421E25041F68D
:1042100010432022E25041F608434FF43452E55057
:1042200041F60C43E25007F03FFB41F62C436799FF
:10423000E6501AEE100A07F0AAFE1AEE103A83F8BA
:104240002E80F0231AEE900A00932A4629464FF456
:10425000A073FEF748FF04F5E3534FF4A0621F601C
:1042600041F664431AEE900A44F8039041F668431D
:10427000B421E25041F674432022E25041F66C43EF
:104280004FF43452E55041F67043E25007F00CFB16
:1042900041F690436699E6501AEE900A07F077FED1
:1042A0001AEE903A83F82E80F0232A46009329468E
:1042B00058464FF4A073FEF716FF41F61C5365995C
:1042C000E650584607F063FE4A463946584608F01D
:1042D00041F94FF47C6258464FF4C06108F045F94B
:1042E00058460121FEF792FF5846012108F048F98F
:1042F000F0238BF82E802A461BEE100A00932946E5
:104300004FF4A073FEF7EFFE41F6A8536499E65010
:104310001BEE100A07F03BFE1BEE100A4A46394618
:1043200008F018F94FF420621BEE100A394608F025
:104330001CF91BEE100A0121FEF768FF1BEE100AA4
:10434000012108F01DF904F5E9532A4683F82E806F
:10435000F0230093294650464FF4A073FEF7C3FEA6
:1043600041F634635999E650504607F010FE4A462C
:104370003946504608F0EEF84FF47C6250464FF450
:10438000085108F0F2F850460121FEF73FFF504671
:10439000012108F0F5F810238AF82E801498009374
:1043A000482219238521FEF79EFE04F5F3534FF0B2
:1043B0007F481BEE900AC3F800804B228621FEF74F
:1043C00085FE41F69463D44FE6501BEE903A4FF0D1
:1043D0000C091BEE900A9D866AA90123ADF8AC3149
:1043E0006A9708F097FD5898CDF800900F23732234
:1043F0008D21FEF778FE41F6C8631CEE100A44F8E2
:10440000038073228D21FEF761FE41F6FC631CEEF2
:10441000100AE6501CEE103A6AA99D860223ADF8F8
:10442000AC316A9708F076FD1598CDF800900F230F
:104430009B228D21FEF757FE41F630731CEE900A49
:1044400044F803809B228D21FEF740FE41F6647301
:104450001CEE900AE6501CEE903A6AA99D86032352
:10446000ADF8AC316A9708F055FD1698CDF800907C
:104470000F23C4228D21FEF736FE41F698731DEE00
:10448000100A44F80380C5228E21FEF71FFE41F674
:10449000CC731DEE100AE6501DEE103A6AA99D86F7
:1044A0000423ADF8AC316A9708F034FD1DEE900A94
:1044B0004222A221FEF70AFE42F208031DEE900AF4
:1044C000E6501DEE903A6AA99D860523ADF8AC3101
:1044D0006A9708F01FFD1EEE100A73224FF48A71CE
:1044E000FEF7F4FD42F244031EEE100AE6501EEE03
:1044F000103A6AA99D860623ADF8AC316A9708F098
:1045000009FD73221EEE900A1721FEF7DFFD04F568
:1045100002531EEE900A1E601EEE903A6AA99D8616
:10452000251D0723ADF8AC316A9708F0F3FC1FEEA8
:10453000101A284605F0F2FC3699284605F0EEFCE4
:104540001FEE901A284605F0E9FC1799284605F059
:10455000E5FC1899284605F0E1FC1999284605F074
:10456000DDFC1A99284605F0D9FC1B99284605F070
:10457000D5FC1C99284605F0D1FC1D99284605F06C
:10458000CDFC1E99284605F0C9FC1F99284605F068
:10459000C5FC2099284605F0C1FC2199284605F064
:1045A000BDFC2299284605F0B9FC2399284605F060
:1045B000B5FC2499284605F0B1FC2599284605F05C
:1045C000ADFC2699284605F0A9FC2799284605F058
:1045D000A5FC2899284605F0A1FC2999284605F054
:1045E0009DFC2A99284605F099FC2B99284605F050
:1045F00095FC2C99284605F091FC2D99284605F04C
:104600008DFC2E99284605F089FC2F99284605F047
:1046100085FC3099284605F081FC3199284605F043
:104620007DFC0399284605F079FC0499284605F09D
:1046300075FC0599284605F071FC0699284605F099
:104640006DFC0799284605F069FC0899284605F095
:1046500065FC3299284605F061FC0999284605F069
:104660005DFC0A99284605F059FC0B99284605F08F
:1046700055FC0C99284605F051FC0D99284605F08B
:104680004DFC0E99284605F049FC0F99284605F087
:1046900045FC3399284605F041FC1099284605F061
:1046A0003DFC1199284605F039FC1299284605F081
:1046B00035FC1399284605F031FC19EE101A2846EE
:1046C00005F02CFC19EE901A284605F027FC1AEE8E
:1046D000101A284605F022FC1AEE901A284605F01A
:1046E0001DFC5946284605F019FC1BEE101A2846F9
:1046F00005F014FC5146284605F010FC1499284694
:1047000005F00CFC1BEE901A284605F007FC5899A2
:10471000284605F003FC01E0401802081CEE101AC0
:10472000284605F0FBFB1599284605F0F7FB1CEE23
:10473000901A284605F0F2FB1699284605F0EEFB84
:104740001DEE101A284605F0E9FB1DEE901A2846CA
:1047500005F0E4FB1EEE101A284605F0DFFB2846A4
:104760001EEE901A05F0DAFB20460DF2647DBDECDA
:10477000108BBDE8F08F00BF704710B54FF4AC71DF
:1047800004461AF04EFB204610BD10B50446D0F882
:10479000540100F012F82046BDE810400AF0B4B809
:1047A00010B50446FEF70CF9014B2360204610BDFE
:1047B000E81F020800220260704770477047043803
:1047C0007047704710B5102104461AF02AFB2046A6
:1047D00010BDA0F10400F5E710B500228260044A84
:1047E000C16002F1080420320460426010BD00BFC5
:1047F0002420020870477047FEF72BBC0000000021
:104800002DE9F04F2DED048BE7B000F580730C938C
:1048100000F5CA730D9300F50A730E9300F52F731C
:104820000F9300F55473109300F57973119300F50D
:104830008F63129300F20C53139300F5B463149337
:1048400000F23463159300F5D963169300F25C739C
:10485000179300F5FE63189300F68403199300F68E
:1048600018131A9300F6AC131B9300F524631C93E2
:1048700000F6D4231D9300F668331E9300F6FC3334
:104880001F9300F54963209300F62453219300F60B
:10489000B853229300F64C63239300F56E63249380
:1048A00000F67473259300F580530833269300F5C2
:1048B00084531C33279300F589531033289300F554
:1048C0008E530433299300F5925318332A9300F53D
:1048D00097530C332B9300F59C532C9300F5A05366
:1048E00014332D9300F5A55308332E9300F5A953E7
:1048F0001C332F9300F5AE531033309300F5B353B0
:104900000433319300F5B7531833329300F5BC5399
:104910000C33339300F5C153349300F5C55314336E
:10492000359300F5CA530833369300F5CE531C3344
:10493000379300F5D3531033389300F5BE73399392
:1049400000F504733A9300F529733B9300F54E7319
:104950003C9300F573733D9300F58C633E9300F236
:10496000F4433F9300F5B163409300F21C6341931D
:1049700000F5D663429300F24473439300F5FB6362
:10498000449300F66C03459300F51063469300F6DC
:104990009413479300F62823489300F6BC234993C9
:1049A00000F535634A9300F6E4334B9300F6784301
:1049B0004C9300F60C534D9300F55A634E9300F65A
:1049C00034634F9300F6C863509300F65C735193C1
:1049D00000F57F63529300F584530433539300F53D
:1049E00088531833549300F58D530C33559300F5C9
:1049F0009253569300F596531433579300F59B53F7
:104A00000833589300F59F531C33599300F5A45372
:104A100010335A9300F5A95304335B9300F5AD535B
:104A200018335C9300F5B2530C335D9300F5B75324
:104A30005E9300F5BB5314335F9300F5C053083306
:104A4000609300F5C4531C33619300F5C9531033D0
:104A5000629300F5CE530433639300F5D2531833B9
:104A6000649300F5D7530C33DFF800A26593044636
:104A70000025DAF800B0BBF1000F40F0D280C5F19C
:104A8000B400FBF781FE70A3D3E90023804689467A
:104A9000FBF7FEFBDAED017A9FED6D7AF8EE677AAF
:104AA00041EC180BF4EE477AF1EE10FACCBF17EE9A
:104AB000100A17EE900AFBF779FE61A3D3E90023F1
:104AC000FBF7E6FBFBF77AFF09EE100AFBF76EFE39
:104AD000B0EE480AF0EE680A06460F461AF0CCF926
:104AE0008DED000BB0EE480AF0EE680A1AF014FAE9
:104AF000584B0022404649468DED020BFBF7F6FC71
:104B000051A3D3E90023FBF7C3FB41EC100B41ECAD
:104B1000180B1AF0B1F953EC102BB0EE480AF0EE76
:104B2000680ACDE904231AF0F7F94B490A914B4979
:104B30000B91DDE904233046394659EC108BFBF725
:104B4000A7FB474B0022FBF7D3FCFBF737FF42469E
:104B500006904B4630463946FBF79AFB02460B4619
:104B600000204049FBF7C2FCFBF728FFDDE90023EA
:104B7000079039463046FBF78BFB394B0022FBF799
:104B8000B7FCFBF71BFFDDE90223089039463046EE
:104B9000FBF77EFB02460B4600203249FBF7A6FCE2
:104BA000FBF70CFF0CAB0990EF583B6838465B6F86
:104BB000984706AE8046D84506F1080618DD16ED82
:104BC000017A56ED027A3B68F0EE476AB0EE677AFA
:104BD000FEEEED6ABEEEED7AD3F87890594616EE09
:104BE000903A17EE102A3846C8470BF1010BE2E75E
:104BF000384606F0AFFCFCEEC97A39ABCDED007A51
:104C0000E9589DF80020184B43EA02234B613846CF
:104C100006F0A0FC3B6838465B6998470123CAF858
:104C200000300435B42D0AF1080A7FF422AF201DAC
:104C300067B0BDEC048BBDE8F04F0AF0F2BE00BFD8
:104C40009A9999999999F93F11E7FAA146DF913F0D
:104C50000000C842000010400000204300007043E4
:104C60000000644000006E400000FFFF0859012072
:104C700010B543F2B44104461AF0D3F8204610BDF3
:104C800010B50446FEF7D4FA014B2360204610BD50
:104C900054200208F02070474FF4A070704729207C
:104CA000FCF7ECBC2820FCF7E9BC08B5FCF7BAFC23
:104CB000CA20FCF7E3FCC320FCF7C4FC0820FCF787
:104CC000C1FC5020FCF7BEFCCF20FCF7D7FC002035
:104CD000FCF7B8FCC120FCF7B5FC3020FCF7B2FCB7
:104CE000ED20FCF7CBFC6420FCF7ACFC0320FCF7C8
:104CF000A9FC1220FCF7A6FC8120FCF7A3FCE8200D
:104D0000FCF7BCFC8520FCF79DFC0020FCF79AFC1E
:104D10007820FCF797FCCB20FCF7B0FC3920FCF79F
:104D200091FC2C20FCF78EFC0020FCF78BFC34203F
:104D3000FCF788FC0220FCF785FCF720FCF79EFCC2
:104D40002020FCF77FFCEA20FCF798FC0020FCF711
:104D500079FC0020FCF776FCB120FCF78FFC0020EA
:104D6000FCF770FC1B20FCF76DFCB620FCF786FC02
:104D70000A20FCF767FCA220FCF764FCC020FCF7CB
:104D80007DFC1020FCF75EFCC120FCF777FC1020B6
:104D9000FCF758FCC520FCF771FC4520FCF752FCE1
:104DA0001520FCF74FFCC720FCF768FC9020FCF7AF
:104DB00049FC3620FCF762FCC820FCF743FCF220DB
:104DC000FCF75CFC0020FCF73DFCB020FCF756FC37
:104DD000C220FCF737FCB620FCF750FC0A20FCF799
:104DE00031FCA720FCF72EFC2720FCF72BFC04202D
:104DF000FCF728FC2A20FCF741FC0020FCF722FCF1
:104E00000020FCF71FFC0020FCF71CFCEF20FCF747
:104E100019FC2B20FCF732FC0020FCF713FC0020CF
:104E2000FCF710FC0120FCF70DFC3F20FCF70AFC0E
:104E3000F620FCF723FC0120FCF704FC0020FCF723
:104E400001FC0620FCF7FEFB2C20FCF717FCC82019
:104E5000FCF762FC2620FCF711FC0120FCF7F2FBBA
:104E6000E020FCF70BFC0F20FCF7ECFB2920FCF703
:104E7000E9FB2420FCF7E6FB0C20FCF7E3FB0E200B
:104E8000FCF7E0FB0920FCF7DDFB4E20FCF7DAFB2A
:104E90007820FCF7D7FB3C20FCF7D4FB0920FCF77B
:104EA000D1FB1320FCF7CEFB0520FCF7CBFB172032
:104EB000FCF7C8FB1120FCF7C5FB0020FCF7C2FB88
:104EC000E120FCF7DBFB0020FCF7BCFB1620FCF725
:104ED000B9FB1B20FCF7B6FB0420FCF7B3FB112049
:104EE000FCF7B0FB0720FCF7ADFB3120FCF7AAFB79
:104EF0003320FCF7A7FB4220FCF7A4FB0520FCF7BE
:104F0000A1FB0C20FCF79EFB0A20FCF79BFB282052
:104F1000FCF798FB2F20FCF795FB0F20FCF792FB8A
:104F20001120FCF7ABFBC820FCF7F6FB2920FCF7AF
:104F3000A5FBBDE808402C20FCF7A0BB08B5FCF79A
:104F400071FB0321D320FCF7B5FB80B208BD10B57F
:104F5000C4B2022203212046FCF71AFB0A20FCF708
:104F60005FFB204600220321FCF712FBBDE8104046
:104F70000220FCF755BB38B50446E4B2FCF706FB4B
:104F800000212046FCF71CFB012105462046FCF7CA
:104F900017FB40EA052080B238BD10B5C4B24021ED
:104FA0002046FCF70DFB030607D54C212046FCF7F5
:104FB00007FB003818BF012010BD01224B212046FD
:104FC000FCF7E6FA204600224B21FCF7E1FA00202C
:104FD000F2E773B50423C4B20E461546D7210DEB94
:104FE00003022046FCF706FB019B1BBA1A0DC3F314
:104FF0000B23328020462B8001224B21FCF7C8FA7C
:1050000000224B212046FCF7C3FA02B070BD00001D
:1050100010B50A4B1A78904204460DD05978884250
:105020000AD00AB141B901229C54FCF7AFFA2046DC
:10503000BDE81040FFF78BBF10BD00BFF845002052
:1050400010B5C4B209212046FCF7BAFA40F00100BD
:10505000C2B209212046BDE81040FCF799BA10B54C
:10506000C4B209212046FCF7ABFA092100F0FE0288
:105070002046BDE81040FCF78BBA38B5C4B20D46E7
:1050800020460A21FCF79CFA40EA0502D2B22046EB
:105090000A21BDE83840FCF77BBA07B50190FCF760
:1050A00076FA01981F21FFF7E8FF019803B05DF839
:1050B00004EBFFF7C5BF38B5C4B20D4620460A2140
:1050C000FCF77EFA20EA0502D2B220460A21BDE8AA
:1050D0003840FCF75DBA10B50446FFF7C0FF204624
:1050E0001F21BDE81040FFF7E6BF10B5C0B20C4667
:1050F0000B21FCF765FA204010BD1F21FFF7F5BF1B
:105100000A46C0B20B21FCF743BA1F21FFF7F8BFD4
:1051100038B5C4B20D4620461721FCF751FA20EAF3
:105120000502D2B220461721BDE83840FCF730BA5C
:1051300070B5C4B2064604212046FCF741FA0421AA
:1051400000F0FB0205462046FCF722FA3046F0212B
:10515000FFF7DEFF05F0F80220460421FCF718FAFD
:10516000492220212046FCF713FA0220FCF758FAC6
:10517000204601222121FCF70BFA20469A224121E8
:10518000FCF706FA204601224A21FCF701FA2046E4
:1051900001224B21FCF7FCF9204600224B21FCF7B1
:1051A000F7F9204601225621FCF7F2F920460122A8
:1051B0005821FCF7EDF9204601224021FCF7E8F9DF
:1051C0002046FF220B21FCF7E3F9BDE870400220E6
:1051D000FCF726BA054BD3F8882042F47002C3F8D6
:1051E00088204FF000629A60704700BF00ED00E039
:1051F00008B50B4B1A6842F400721A601A6842F440
:1052000080621A601A6842F480721A60032000F00B
:105210002FF80020FCF7ECFCFCF78CFA002008BD0E
:10522000003C0240034A044B11681B780B44136096
:10523000704700BFB05A01207C000020014B186865
:10524000704700BFB05A012038B50446FFF7F6FF9B
:10525000631C1CBF054B1B78054618BFE418FFF7FD
:10526000EDFF431BA342FAD338BD00BF7C000020F2
:105270000749CA6822F4E0620302120403F4E063FF
:10528000120C134343F0BF6343F40033CB60704709
:1052900000ED00E0164B30B5DC68C4F30224C4F125
:1052A0000705231D042D28BF0425062B4FF0FF33CF
:1052B0008CBF033C002403FA05F521EA0501A34055
:1052C00022EA0302A140002841EA0203ACBF00F138
:1052D0006040084A4FEA0313B8BF00F00F00DBB28A
:1052E000AABF00F56140135480F8003330BD00BF01
:1052F00000ED00E014ED00E0002808DB4209012386
:1053000000F01F0003FA00F0014B43F82200704741
:1053100000E100E010B5044650B1437903F0FF020C
:1053200013B90271FCF726FA01236371002010BD46
:105330000120FCE710B5044630B390F8393003F093
:10534000FF021BB980F83820FCF72CFA226861684C
:10535000022384F83930136823F440330B4313607D
:10536000536BA16823F007030B435363136CE1688D
:1053700023F47F5323F03F030B43136400200123E6
:10538000E06384F8393010BD0120FCE770477047B6
:10539000036870B55E681D68F207044614D5E90518
:1053A00012D51A6822F480721A60C26B42F00102B0
:1053B000C26301229A60042380F83930002380F808
:1053C0003830436903B19847B20616D5AB0414D5FB
:1053D00023681A6822F400521A6020229A60E36B54
:1053E00043F00203E363042384F83930002384F894
:1053F000383063690BB120469847300716D5290528
:1054000014D523681A6822F400621A6008229A6090
:10541000E36B43F00403E363042384F8393000238F
:1054200084F8383063690BB12046984772070BD572
:105430006B0509D523681A6822F480621A60042279
:105440009A602046FFF7A2FFB00714D5A90512D530
:1054500023681A6822F400721A6002229A60E36BD1
:10546000E363012384F83930002384F8383023695A
:105470000BB120469847F20613D5EB0411D52368EB
:105480001A6822F480521A6010229A60E36BE36378
:10549000012384F83930002384F838302046FFF7A0
:1054A00076FF70BDF0B590F83830012B4FF0020355
:1054B0002BD0012280F8393080F8382000EB01131E
:1054C000D3E907425D6A184F44EA0242093C012CC5
:1054D0009CBF05F07F431A434FEA0116036888BF5B
:1054E00042EA056299B9596A39400A435A62012C65
:1054F00082699A6103D8426A22F07F429A6201234C
:1055000080F83930002380F838301846F0BDD9696A
:1055100039400A43DA618219012C92691A619CBFF1
:1055200025F07F451D62EAE7F0FFFC002DE9F74F0B
:10553000DFF8C4816E4ADFF8C49100230D680124AE
:105540009C4004EA0506AC4340F0B8804C6824F067
:10555000100C4FEA430E03250CF1FF3705FA0EF548
:10556000012F6FEA050511D8876807EA050ACF6899
:1055700007FA0EF747EA0A078760476827EA060A2C
:10558000C4F300179F4047EA0A074760C76807EA65
:10559000050A8F6807FA0EF747EA0A07BCF1020FFF
:1055A000C76016D14FEAD30A00EB8A0A03F0070B53
:1055B000DAF820704FEA8B0B4FF00F0C0CFA0BFC53
:1055C00027EA0C0C0F6907FA0BF747EA0C07CAF831
:1055D000207007683D4004F0030707FA0EFE4EEA0C
:1055E00005050560E50069D54FF0000BCDF804B066
:1055F000D8F844703F4D47F48047C8F84470D8F855
:10560000447007F480470197019F23F0030707F1D7
:10561000804707F59C3703F0030ED7F808A04FEA40
:105620008E0E4FF00F0C0CFA0EFCA8422AEA0C0C5E
:105630004BD005F58065A84249D005F58065A842A4
:1056400047D005F58065A84245D005F58065A8429C
:1056500043D0484543D005F50065A84241D005F543
:105660008065A8423FD005F58065A8423DD005F58C
:105670008065A8420CBF09250A2505FA0EF545EA02
:105680000C05BD601568F74314F4803F0CBF3D4026
:1056900035431560556814F4003F0CBF3D40354359
:1056A0005560956814F4801F0CBF3D4035439560EC
:1056B000D568A40254BF3D403543D5600133102B5B
:1056C0007FF43CAF03B0BDE8F08F5D46D5E7012520
:1056D000D3E70225D1E70325CFE70425CDE705254C
:1056E000CBE70625C9E70725C7E70825C5E700BFBB
:1056F000003C01400000024000380240001402401B
:105700000AB1816170470904FBE701684B6913F432
:1057100080634FF0000210D06FF480634B61202350
:10572000026380F83D3080F83E20036C80F83C2016
:1057300043F00403036401207047184670472DE9C5
:10574000F04104460F46164698462568686927EAE0
:10575000000080B2B8B16B695A0516D52B6843F4C6
:1057600000732B606FF480636B612022002323633E
:1057700084F83D2084F83E30226C42F0040222641A
:1057800084F83C300120BDE8F081731CDED0FFF7C7
:1057900055FDA0EB0800B04201D8002ED5D1002362
:1057A0002022236384F83D2084F83E30226C42F0AE
:1057B0002002E4E770B504460D46164623685B698F
:1057C0005B0701D5002070BD2046FFF79EFFA8B9FA
:1057D0006A1CF3D0FFF732FD801BA84201D8002DD0
:1057E000ECD100232022236384F83D2084F83E304E
:1057F000226C84F83C3042F0200222640120E2E76F
:1058000070B504460D46164621684B6913F04003F7
:1058100001D0002010E04A69D2060ED56FF01002C8
:105820004A612022236384F83D2084F83E30226CB4
:10583000226484F83C30012070BDFFF7FFFC801B20
:10584000A84201D8002DDFD100232022236384F851
:105850003D2084F83E30226C42F02002E8E72DE93A
:10586000F84606460F4691461D464FEA114A3368F0
:10587000BAF1010F0CBF5C699C6927EA0404A4B269
:10588000B4FA84F46409A14501D0002017E06A1C31
:10589000EED0FFF7D3FC089BC01AA84201D8002D18
:1058A000E5D100232022336386F83D2086F83E3080
:1058B000326C86F83C3042F0200232640120BDE8B0
:1058C000F88670B504460D46164623685B691B06CC
:1058D00001D5002070BD2046FFF717FFA8B96A1C4C
:1058E000F3D0FFF7ABFC801BA84201D8002DECD110
:1058F00000232022236384F83D2084F83E30226C6C
:1059000084F83C3042F0200222640120E2E70000EB
:105910002DE9F0431546026885B0DDE90C7899461B
:10592000136843F4807313600E463B46CDF8008045
:1059300000224FF001110446FFF791FF236838B1B0
:105940001B68DB0502D54FF40073236403200AE0D3
:1059500006F0FE061E61194943463A462046FFF707
:10596000EEFE18B1012005B0BDE8F0832368039076
:105970005A6903929B690393424639462046039B2A
:10598000FFF79FFF40B1236C042B01BF226813680F
:1059900043F400731360E5E7B9F1010F236802D106
:1059A000EDB21D61DFE72A0A1A61394642462046F8
:1059B000FFF787FF0028E6D12368F1E70200010026
:1059C0002DE9FF479A46036815461A6842F480623B
:1059D0001A601A68DDE90C7842F480721A600E468B
:1059E0003B46CDF8008000224FF001110446FFF73E
:1059F00036FF236848B11B68DB0502D54FF40073FE
:105A00002364032004B0BDE8F0875FFA86F906F04E
:105A1000FE061E612A4943463A462046FFF78FFE9E
:105A200008B10120EEE7236803905A6903929B694D
:105A30000393424639462046039BFFF742FF40B19D
:105A4000236C042B01BF2268136843F400731360B6
:105A5000E7E7BAF1010F23681AD1EDB21D614246A2
:105A600039462046FFF72DFF0028E9D12268136848
:105A700043F4807313604FF001110246CDF80080AB
:105A80003B462046FFF7EBFE226860B11368B3E7A0
:105A90002A0A1A61394642462046FFF712FF0028BB
:105AA000CED12368D9E749F0010313610449434685
:105AB0003A462046FFF743FE003818BF0120A1E711
:105AC0000200010070B5044608B9012070BD90F8CD
:105AD0003D3003F0FF021BB980F83C20FBF784FE49
