:020000040800F2
:1000000000000320A9960008D9430008DB4300083C
:10001000DD430008DF430008E14300080000000062
:10002000000000000000000000000000B18E000889
:10003000E343000800000000418F0008A58F00087E
:10004000F9960008F9960008F9960008F996000854
:10005000F9960008F9960008F9960008F996000844
:10006000F9960008F9960008F9960008F996000834
:10007000F9960008F9960008F9960008F996000824
:10008000F9960008F9960008F9960008F996000814
:10009000F9960008F9960008F9960008F996000804
:1000A000F9960008F9960008F9960008F9960008F4
:1000B000F9960008F9960008F9960008F9960008E4
:1000C000F9960008F9960008F9960008F9960008D4
:1000D000F9960008F9960008F9960008F9960008C4
:1000E000F9960008F9960008F9960008F9960008B4
:1000F000F9960008F9960008F9960008F9960008A4
:10010000F9960008F9960008F9960008F996000893
:10011000F9960008F9960008E5430008F9960008EA
:10012000F9960008F9960008F9960008F996000873
:10013000F9960008F9960008F9960008F996000863
:10014000F9960008F9960008F9960008F996000853
:10015000F9960008F9960008F9960008F996000843
:10016000F9960008F9960008F9960008F996000833
:10017000F9960008F9960008F996000800000000BA
:10018000F9960008F9960008F9960008F996000813
:10019000F9960008F9960008F9960008F996000803
:0C01A000F1430008F9960008FD43000838
:1001B00010B5054C237833B9044B13B10448AFF3A1
:1001C00000800123237010BD6001002000000000AA
:1001D00058F7010808B5034B1BB103490348AFF3B7
:1001E000008008BD000000006401002058F70108ED
:1001F00053B94AB9002908BF00281CBF4FF0FF318E
:100200004FF0FF3000F072B9ADF1080C6DE904CE8B
:1002100000F006F8DDF804E0DDE9022304B07047E1
:100220002DE9F047089E04468846002B4BD18A42B0
:10023000154667D9B2FA82F24AB1C2F1200701FA33
:1002400002F320FA07F7954047EA030894404FEA83
:10025000154E230CB8FBFEF71FFA85FC0EFB178822
:1002600043EA084307FB0CF1994209D9EB1807F15F
:10027000FF3080F01B81994240F21881023F2B44ED
:100280005B1AA4B2B3FBFEF00EFB103344EA034446
:1002900000FB0CFCA44509D92C1900F1FF3380F0B8
:1002A0000781A44540F2048102382C4440EA07400B
:1002B000A4EB0C0400271EB1D4400023C6E9004380
:1002C0003946BDE8F0878B4209D9002E00F0EB805B
:1002D0000027C6E9000138463946BDE8F087B3FA81
:1002E00083F7002F47D18B4202D3824200F2FA807B
:1002F000841A61EB030301209846002EE0D0C6E982
:100300000048DDE702B9FFDEB2FA82F2002A40F0CF
:100310008F80491B4FEA154E1FFA85F80127B1FB64
:10032000FEFC230C0EFB1C1143EA014308FB0CF1FD
:10033000994207D9EB180CF1FF3002D2994200F232
:10034000CD808446591AA3B2B1FBFEF00EFB101407
:1003500043EA044408FB00F8A04507D92C1900F132
:10036000FF3302D2A04500F2B6801846A4EB080481
:1003700040EA0C409FE7C7F1200CBB4022FA0CFE7C
:100380004EEA030E01FA07F420FA0CF521FA0CF3F9
:100390004FEA1E482543B3FBF8F92C0C08FB193330
:1003A0001FFA8EFA44EA034309FB0AF49C4202FA5C
:1003B00007F200FA07F10BD91EEB030309F1FF3036
:1003C00080F087809C4240F28480A9F10209734446
:1003D0001B1BADB2B3FBF8F008FB103345EA034436
:1003E00000FB0AFAA24508D91EEB040400F1FF3312
:1003F0006BD2A24569D90238744440EA0940A0FB97
:100400000289A4EB0A044C45C2464B4654D351D052
:10041000002E69D0B1EB0A0564EB030404FA0CFC6E
:10042000FD40FC404CEA0505C6E90054002747E7BB
:10043000C2F1200320FA03F7954001FA02F021FAF5
:1004400003F34FEA154E3843010CB3FBFEF71FFAD6
:1004500085F80EFB173341EA034107FB08F38B4293
:1004600004FA02F407D9691807F1FF3C2FD28B4236
:100470002DD9023F2944CB1A81B2B3FBFEF00EFB0B
:10048000103341EA034100FB08F38B4207D9691896
:1004900000F1FF3C17D28B4215D902382944C91A02
:1004A00040EA07473BE73746304609E70746E7E6B5
:1004B0001846FBE64145ABD2B8EB020A69EB0E02E7
:1004C00001381346A4E76046E9E7184695E7674612
:1004D000D1E781467CE702382C4447E7ACF1020CB7
:1004E0002B442FE7384608E73746E9E6704700BF58
:1004F00001F0FF01102A2BDB10F0070F08D010F8D5
:10050000013B013A8B422DD010F0070F42B3F6D1D8
:10051000F0B441EA012141EA014122F007047FF0F1
:1005200000070023F0E80256083C85EA010586EA48
:10053000010685FA47F5A3FA87F586FA47F6A5FA84
:1005400087F68EB9EED1F0BC01F0FF0102F0070290
:1005500032B110F8013B013A83EA010313B1F8D13B
:100560000020704701387047002D06BF354603381C
:10057000073815F0010F07D1013015F4807F02BF55
:10058000013015F4C03F0130F0BC0138704700BFA6
:10059000704704387047704710B5102104461EF0AC
:1005A0003BF9204610BDA0F10400F5E710B500228C
:1005B0008260044AC16002F1080420320460426093
:1005C00010BD00BFC8F701087047704770477047FB
:1005D000704700F086B810B543F24C3104461EF067
:1005E0001BF9204610BD000010B5044600F0C6F906
:1005F000014B2360204610BDF8F70108002202607D
:1006000070477047704700F596730868496803C3E0
:100610007047704710B54FF4AC7104461EF0FCF8FB
:10062000204610BD10B50446D0F85401FFF7E9FF8D
:100630002046BDE810400DF049BE10B50446D0F884
:100640003C0158B10368DB68984738B1D4F83C01E5
:1006500003689B6898470023C4F83C3110BD000034
:1006600010B5044602F000FA014B2360204610BD8D
:100670002CF801080020704781807047C1807047C6
:1006800001817047418170477047704770477047DC
:100690007047C38810B4D21A83885DF8044BC91A16
:1006A000036812B21B6D09B218474FF6FF738381BE
:1006B0004FF0FF3303621368C361106070477047E7
:1006C000704790F825201AB190F8242002B11860E4
:1006D0007047704780F82E10704790F82E007047D2
:1006E0007047704770470320704702299EBF00EB98
:1006F0008100C2648365704702299ABF00EB8100C4
:10070000C06C0020704702299ABF163150F82100B2
:100710000020704702299EBF00EB810042660367FC
:10072000704702299ABF00EB8100406E002070479D
:1007300002299ABF1C3150F821000020704710B5E3
:10074000082104461EF068F8204610BD10B57C2133
:1007500004461EF061F8204610BD10B543F24C313E
:1007600004461EF059F8204610BD70B503680446D3
:10077000DB6A154698472368294620461B6BBDE86F
:100780007040184770B504461E46BDF91050FFF77B
:10079000ECFF2368314620465A6B90472368294670
:1007A00020469B6BBDE8704018470000012180F88F
:1007B00025100B4901600022FF218280C280028146
:1007C00042818281C28102824282C0E90522C261E5
:1007D0000284428480F8242080F8261082627047C8
:1007E00048170208012180F82510104901601049BE
:1007F00081624FF6FF71002281854FF47F01828074
:10080000C280028142818281C28102824282C0E929
:100810000522C2610284428480F82420026341637D
:1008200080F8382080F83920704700BFA0160208F1
:1008300070F8010870B5FF2200230272124E134AAD
:100840000260C0E903333268436092F876100446D0
:1008500009B1D06C00B9906803685B6A9847336847
:10086000B0FA80F5D86C6D0928B103685B6A9847C7
:10087000002808BF01252DB9054B064A06482C2142
:100880001DF0D6FF204670BDA05101201C120208A9
:1008900010F9010800FA01086EF9010810B50446C4
:1008A0000AF024FB084B23600023C4E91333C4E996
:1008B0001533C4E91733C4E91933C4E91B33C4E958
:1008C0001D33204610BD00BF80F80108F0EE407ACD
:1008D000FEEEED7A016B17EE902AF0EE607AFEEEF6
:1008E000ED7A8A4217EE903A02D1416B8B4203D0E7
:1008F000C0E90C230AF010BB7047F0EE407AFEEE20
:10090000ED7A816B17EE902A8A42034603D0C3ED3D
:100910000E7A0AF001BB70472DE9F04103685B6F66
:1009200005460C46984700268046464504F10804D3
:1009300016DA14ED017A54ED027A2B68F0EE476A6C
:10094000B0EE677AFEEEED6ABEEEED7A9F6F31464D
:1009500016EE903A17EE102A2846B8470136E4E71B
:100960002846BDE8F0410AF0D7BA026C490191422D
:1009700002D001640BF0C2B9704700002DE9F04FBE
:100980002DED028B0446ADF2246D0FF09BF822464C
:100990000026E14BE66342F8403B10464392FFF7E6
:1009A00005FF04F16C0318460DF5C4654493FFF789
:1009B000FDFE04F198033E934FF6FF7325F8183DB2
:1009C0003E98D64F9FEDD68A29460BF099FB04F14D
:1009D000C40318464293FFF705FF04F5807304F53E
:1009E000BE7818461693FFF759FF4046FFF722FFDF
:1009F00004F5CA7304F5047BC4F87C71C4F89061F3
:100A000018461793FFF74AFF5846FFF713FF04F500
:100A10000A73C4F81072C4F8246218461893FFF7DA
:100A20003DFF04F5297318467793FFF703FF04F59C
:100A30002F73C4F8A472C4F8B86218461993FFF76C
:100A40002DFF04F54E7318467693FFF7F3FE04F579
:100A50005473C4F83873C4F84C6318461A93FFF7FC
:100A60001DFF04F5737318467593FFF7E3FE04F555
:100A70007973C4F8CC73C4F8E06318461B93FFF78E
:100A80000DFF04F58C6318467493FFF7D3FE04F54D
:100A90008F63C4F86074C4F8746418461C93FFF73D
:100AA000FDFE04F2F44318467393FFF7C3FE04F20D
:100AB0000C53C4F8F474C4F8086518461D93FFF786
:100AC000EDFE04F5B16318467293FFF7B3FE04F52B
:100AD000B463C4F88875C4F89C6518461E93FFF784
:100AE000DDFE04F21C6318467193FFF7A3FE04F2C7
:100AF0003463C4F81C76C4F8306618461F93FFF7B9
:100B0000CDFE04F5D66318467093FFF793FE04F507
:100B1000D963C4F8B076C4F8C46618462093FFF7CA
:100B2000BDFE04F2447318466F93FFF783FE04F290
:100B30005C73C4F84477C4F8586718462193FFF7EC
:100B4000ADFE04F5FB6318466E93FFF773FE04F5E4
:100B5000FE63C4F8D877C4F8EC6718462293FFF711
:100B60009DFE04F66C0318466D93FFF763FE04F6D2
:100B70008403C4F86C78C4F8806818462393FFF7A0
:100B80008DFE04F5106318466C93FFF753FE04F6D0
:100B90001813C4F80079C4F8146918462493FFF7B1
:100BA0007DFE04F6941318466B93FFF743FE04F69C
:100BB000AC13C4F89479C4F8A86918462593FFF7D4
:100BC0006DFE04F6282318466A93FFF733FE04F5FA
:100BD0002463C4F8287AC4F83C6A18462693FFF7C1
:100BE0005DFE04F6BC2318466993FFF723FE04F666
:100BF000D423C4F8BC7AC4F8D06A18462793FFF708
:100C00004DFE04F5356318466893FFF713FE04F6AE
:100C10006833C4F8507BC4F8646B18462893FFF718
:100C20003DFE04F6E43318466793FFF703FE04F62F
:100C3000FC33C4F8E47BC4F8F86B18462993FFF73B
:100C40002DFE04F6784318466693FFF7F3FD04F58E
:100C50004963C4F8787CC4F88C6C18462A93FFF773
:100C60001DFE04F60C5318466593FFF7E3FD04F6EA
:100C70002453C4F80C7DC4F8206D18462B93FFF75D
:100C80000DFE04F55A6318466493FFF7D3FD04F68E
:100C9000B853C4F8A07DC4F8B46D18462C93FFF780
:100CA000FDFD04F6346318466393FFF7C3FD04F6B5
:100CB0004C63C4F8347EC4F8486E18462D93FFF791
:100CC000EDFD04F6C86318466293FFF7B3FD04F523
:100CD0006E63C4F8C87EC4F8DC6E18462E93FFF726
:100CE000DDFD04F65C7318466193FFF7A3FD04F67F
:100CF0007473C4F85C7FC4F8706F18462F93FFF7C5
:100D0000CDFD04F57F6318466093FFF793FD41F234
:100D10000403C4F8F07F05E0D4F90108AC10020820
:100D200000000000E65004F58053083341F28409C6
:100D300018460393FFF7B2FD04EB090318465F93CF
:100D4000FFF778FD41F2980344F80970E65004F586
:100D500084531C3341F2181918460493FFF79EFD83
:100D600004EB090318465E93FFF764FD41F22C1370
:100D700044F80970E65004F58953103341F2AC1978
:100D800018460593FFF78AFD04EB090318465D93A7
:100D9000FFF750FD04F58E5344F80970043343F80F
:100DA000046C18460693FFF779FD04F59253184634
:100DB0004893FFF73FFD489B1F6041F2542341F2E7
:100DC000D429E65004F59253183318460793FFF7D9
:100DD00065FD04EB090318465C93FFF72BFD41F218
:100DE000E82344F80970E65004F597530C3341F2B8
:100DF000683918460893FFF751FD04EB09031846BC
:100E00005B93FFF717FD41F27C3344F80970E6501D
:100E100004F59C5341F2FC3918463093FFF73EFD30
:100E200004EB090318465A93FFF704FD41F21043FF
:100E300044F80970E65004F5A053143341F2904988
:100E400018460993FFF72AFD04EB09031846599346
:100E5000FFF7F0FC41F2A44344F80970E65004F5B2
:100E6000A553083341F2245918460A93FFF716FD9B
:100E700004EB090318465893FFF7DCFC41F23853A2
:100E800044F80970E65004F5A9531C3341F2B859EF
:100E900018460B93FFF702FD04EB0903184657931E
:100EA000FFF7C8FC41F2CC5344F80970E65004F552
:100EB000AE53103341F24C6918460C93FFF7EEFC29
:100EC00004EB090318465693FFF7B4FC04F5B3533B
:100ED00044F80970043343F8046C18460D93FFF787
:100EE000DDFC04F5B75318464793FFF7A3FC479B77
:100EF0001F6041F2F46341F27479E65004F5B75390
:100F0000183318460E93FFF7C9FC04EB0903184683
:100F10005593FFF78FFC41F2887344F80970E6504F
:100F200004F5BC530C3341F6080918460F93FFF73C
:100F3000B5FC04EB090318465493FFF77BFC41F61C
:100F40001C0344F80970E65004F5C15341F69C09AE
:100F500018463193FFF7A2FC04EB0903184653939C
:100F6000FFF768FC41F6B00344F80970E65004F559
:100F7000C553143341F6301918461093FFF78EFC11
:100F800004EB090318465293FFF754FC41F644134F
:100F900044F80970E65004F5CA53083341F6C41901
:100FA00018461193FFF77AFC04EB09031846519396
:100FB000FFF740FC41F6D81344F80970E65004F5F9
:100FC000CE531C3341F6582918461293FFF766FC9E
:100FD00004EB090318465093FFF72CFC41F66C23F1
:100FE00044F80970E65004F5D353103341F6EC2968
:100FF00018461393FFF752FC04EB090318464F936E
:10100000FFF718FC04F5D85344F80970043343F88B
:10101000046C41F65039184633930AF00FF904EB8B
:10102000090318464E93FFF705FC41F6643344F874
:101030000970E65004F5DB53083341F6B43918461D
:1010400034930AF0FBF804EB090318464D93FFF7BD
:10105000F1FB41F6C83344F80970E65004F5DE535D
:101060000C3341F61849184635930AF0E7F804EBBB
:10107000090318464C93FFF7DDFB41F62C4344F877
:101080000970E65004F5E153103341F67C491846E7
:1010900036930AF0D3F804EB090318464B93FFF795
:1010A000C9FB41F6904344F80970E65004F5E45357
:1010B000143341F60859184614930AF0FFFD04EB67
:1010C000090318464A93FFF7B5FB41F61C5344F851
:1010D0000970E65004F5E95341F6945918463293E5
:1010E0000AF0ECFD04EB090318464993FFF7A2FB55
:1010F00041F6A85344F80970E65004F5ED530C335B
:10110000184615930AF0DAFD04F5F1531846469394
:10111000FFF790FB469B1F6041F634634FF0F009E8
:10112000E65004F5F153183318463F93FFF73EFBA2
:1011300004F5F353043318463793FFF753FB04F5D4
:10114000F55318464593FFF731FB04F5F6530C337E
:1011500018463893FFF746FB04F5F8530833184652
:101160004093FFF723FB04F5F953143318463993E2
:10117000FFF738FB04F5FB53103318464193FFF794
:1011800015FB04F5FC531C3318463A93FFF72AFB72
:1011900004F5FE53183318463B93FFF723FB04F581
:1011A0000053143318463C93FFF71CFB04F501531E
:1011B000103318463D93FFF715FB04F502504FF42A
:1011C00096510C300BF03CFC4FF07F47CDF800906F
:1011D0003246314643984FF4A073FFF7D3FA3246B4
:1011E000A766CDF800904FF4A07331464498DFF81D
:1011F000A493FFF7C7FAC4F8947029463E98ADF857
:1012000008660BF0AAFB3C230093082250233E986B
:101210002B21FFF7B7FA31463E980AF037FF1A2222
:1012200042987B21FFF7A1FA4FF0FF33C4F8F43066
:10123000A4F8F860D64B4298CDF8083629465025D8
:10124000ADF80C660BF048FB2B46A022314600950A
:1012500016984FF48067FFF795FAF0EE480AB0EE63
:10126000480A1698FFF732FBC4F83C71C4F8407185
:10127000169809F051FEB0EE480A1698FFF73DFBAC
:101280004146DFF81483C4F890911698C2460AF0DC
:1012900060FBBAE80F000DF5F47CACE80F009AE8AB
:1012A00003008CE803007AA91698FFF735FB2B465C
:1012B000A022314600951798FFF764FAF0EE480A2D
:1012C000B0EE480A1798FFF701FBC4F8D071C4F8D4
:1012D000D471179809F020FEB0EE480A1798FFF76E
:1012E0000CFBC4F82492594617980AF032FBC64604
:1012F000BEE80F000DF5007CACE80F009AE8030093
:101300008CE8030080A91798FFF706FB2B46A02264
:10131000314600951898FFF735FAF0EE480AB0EE1E
:10132000480A1898FFF7D2FAC4F86472C4F86872D1
:10133000189809F0F1FDB0EE480A1898FFF7DDFAA9
:10134000C4F8B892779918980AF003FBC646BEE82D
:101350000F000DF5067CACE80F009AE803008CE85E
:10136000030086A91898FFF7D7FA2B46A02231462A
:1013700000951998FFF706FAF0EE480AB0EE480A11
:101380001998FFF7A3FAC4F8F872C4F8FC72199818
:1013900009F0C2FDB0EE480A1998FFF7AEFAC4F89A
:1013A0004C93769919980AF0D4FAC646BEE80F0015
:1013B0000DF50C7CACE80F009AE803008CE8030004
:1013C0008CA91998FFF7A8FA2B46A0223146009560
:1013D0001A98FFF7D7F9F0EE480AB0EE480A1A98C3
:1013E000FFF774FAC4F88C73C4F890731A9809F074
:1013F00093FDB0EE480A1A98FFF77FFAC4F8E0931D
:1014000075991A980AF0A5FAC646BEE80F000DF5C0
:10141000127CACE80F009AE803008CE8030092A964
:101420001A98FFF779FA2B46A022314600951B98AF
:10143000FFF7A8F9F0EE480AB0EE480A1B98FFF74C
:1014400045FAC4F82074C4F824741B9809F064FDAC
:10145000B0EE480A1B98FFF750FAC346C4F87494DC
:1014600074991B980AF075FABBE80F000DF5187C0B
:10147000ACE80F009AE803008CE8030098A91B98D9
:10148000FFF74AFA2B46A022314600951C98FFF739
:1014900079F9F0EE480AB0EE480A1C98FFF716FA00
:1014A000C4F8B474C4F8B8741C9809F035FDB0EEF3
:1014B000480A1C98FFF721FAC4F8089573991C98FC
:1014C0000AF047FAC646BEE80F000DF51E7CACE8F0
:1014D0000F009AE803008CE803009EA91C98FFF710
:1014E0001BFA2B46A022314600951D98FFF74AF9BA
:1014F000F0EE480AB0EE480A1D98FFF7E7F9C4F885
:101500004875C4F84C751D9809F006FDB0EE480A00
:101510001D98FFF7F2F9C4F89C9572991D980AF08E
:1015200018FAC646BEE80F000DF5247CACE80F00A3
:101530009AE803008CE80300A4A91D98FFF7ECF9D2
:101540002B46A022314600951E98FFF71BF9F0EEBE
:10155000480AB0EE480A1E98FFF7B8F9C4F8DC75DF
:10156000C4F8E0751E9809F0D7FCB0EE480A1E9842
:10157000FFF7C3F9C4F8309671991E980AF0E9F99B
:10158000C646BEE80F000DF52A7CACE80F0005E06A
:1015900070F8010800DDFFFF70F701089AE803000A
:1015A0008CE80300AAA91E98FFF7B6F92B46A022E3
:1015B000314600951F98FFF7E5F8F0EE480AB0EEC7
:1015C000480A1F98FFF782F9C4F87076C4F8747659
:1015D0001F9809F0A1FCB0EE480A1F98FFF78DF99B
:1015E000C4F8C49670991F980AF0B3F9C646BEE8CD
:1015F0000F000DF5307CACE80F009AE803008CE892
:101600000300B0A91F98FFF787F92B46A0223146A7
:1016100000952098FFF7B6F8F0EE480AB0EE480AB9
:101620002098FFF753F9C4F80477C4F80877209896
:1016300009F072FCB0EE480A2098FFF75EF9C4F892
:1016400058976F9920980AF084F9C646BEE80F00B3
:101650000DF5367CACE80F009AE803008CE8030037
:10166000B6A92098FFF758F92B46A02231460095DD
:101670002198FFF787F8F0EE480AB0EE480A219863
:10168000FFF724F9C4F89877C4F89C77219809F0FB
:1016900043FCB0EE480A2198FFF72FF9C4F8EC9705
:1016A0006E9921980AF055F9C646BEE80F000DF56F
:1016B0003C7CACE80F009AE803008CE80300BCA96E
:1016C0002198DFF870ADFFF727F92B46A0223146AD
:1016D00000952298FFF756F8F0EE480AB0EE480A57
:1016E0002298FFF7F3F8C4F82C78C4F830782298E1
:1016F00009F012FCB0EE480A2298FFF7FEF84646C1
:10170000C4F880986D9922980AF023F90FCE0DF550
:10171000427CACE80F009BE803008CE80300C2A900
:101720002298FFF7F9F82B46A02200210095239874
:10173000FFF728F8F0EE480AB0EE480A2398FFF7C2
:10174000C5F8C4F8C078C4F8C478239809F0E4FB5D
:10175000B0EE480A2398FFF7D0F8C4F814996C99B2
:1017600023980AF0F6F8C646BEE80F000DF5487C4F
:10177000ACE80F009BE803008CE80300C8A923989D
:10178000FFF7CAF82B46A022002100952498FEF707
:10179000F9FFF0EE480AB0EE480A2498FFF796F8F1
:1017A000C4F85479C4F85879249809F0B5FBB0EE20
:1017B000480A2498FFF7A1F8C4F8A8996B992498CF
:1017C0000AF0C7F8C646BEE80F000DF54E7CACE83F
:1017D0000F009BE803008CE80300CEA92498FFF7D4
:1017E0009BF82B46A022002100952598FEF7CAFF02
:1017F000F0EE480AB0EE480A2598FFF767F8C4F8FB
:10180000E879C4F8EC79259809F086FBB0EE480A2F
:101810002598FFF772F8C4F83C9A6A9925980AF05F
:1018200098F8C646BEE80F000DF5547CACE80F00F2
:101830009BE803008CE80300D4A92598FFF76CF817
:101840002B46A022002100952698FEF79BFFF0EE84
:10185000480AB0EE480A2698FFF738F8C4F87C7AB0
:10186000C4F8807A269809F057FBB0EE480A26980B
:10187000FFF743F8C4F8D09A699926980AF069F8F6
:10188000C646BEE80F000DF55A7CACE80F009BE899
:1018900003008CE80300DAA92698FFF73DF82B46F1
:1018A000A022002100952798FEF76CFFF0EE480A71
:1018B000B0EE480A2798FFF709F8C4F8107BC4F87F
:1018C000147B279809F028FBB0EE480A2798FFF709
:1018D00014F8C4F8649B689927980AF03AF8C64649
:1018E000BEE80F000DF5607CACE80F009BE803003C
:1018F0008CE80300E0A92798FFF70EF82B46A022FA
:10190000002100952898FEF73DFFF0EE480AB0EE62
:10191000480A2898FEF7DAFFC4F8A47BC4F8A87B2D
:10192000289809F0F9FAB0EE480A2898FEF7E5FF82
:10193000C4F8F89B679928980AF00BF8C646BEE8E9
:101940000F000DF5667CACE80F009BE803008CE807
:101950000300E6A92898FEF7DFFF2B46A02200210E
:1019600000952998FEF70EFFF0EE480AB0EE480AFF
:101970002998FEF7ABFFC4F8387CC4F83C7C299862
:1019800009F0CAFAB0EE480A2998FEF7B6FFC4F883
:101990008C9C6699299809F0DCFFC646BEE80F00CA
:1019A0000DF56C7CACE80F009BE803008CE80300AD
:1019B000ECA92998FEF7B0FF2B46A0220021009544
:1019C0002A98FEF7DFFEF0EE480AB0EE480A2A98A1
:1019D000FEF77CFFC4F8CC7CC4F8D07C2A9809F0D0
:1019E0009BFAB0EE480A2A98FEF787FFC4F8209DBC
:1019F00065992A9809F0ADFFC646BEE80F000DF5BF
:101A0000727CACE80F009BE803008CE80300F2A9AD
:101A10002A98FEF781FF2B46A022002100952B98E3
:101A2000FEF7B0FEF0EE480AB0EE480A2B98FEF73B
:101A30004DFFC4F8607DC4F8647D2B9809F06CFA02
:101A4000B0EE480A2B98FEF758FFC4F8B49D64998D
:101A50002B9809F07EFFC646BEE80F000DF5787C96
:101A6000ACE80F009BE803008CE80300F8A92B9872
:101A7000FEF752FF2B46A022002100952C98FEF77E
:101A800081FEF0EE480AB0EE480A2C98FEF71EFFE1
:101A9000C4F8F47DC4F8F87D2C9809F03DFAB0EE56
:101AA000480A2C98FEF729FFC4F8489E63992C98A1
:101AB00009F04FFFC646BEE80F000DF57E7CACE88E
:101AC0000F009BE803008CE80300FEA92C98FEF7AA
:101AD00023FF2B46A022002100952D98FEF752FEF1
:101AE000F0EE480AB0EE480A2D98FEF7EFFEC4F873
:101AF000887EC4F88C7E2D9809F00EFAB0EE480A64
:101B00002D98FEF7FAFEC4F8DC9E62992D9809F034
:101B100020FFC646BEE80F000DF5826CACE80F0052
:101B20009BE803008CE803000DF582612D98FEF719
:101B3000F3FE2B46A022002100952E98FEF722FEF0
:101B4000F0EE480AB0EE480A2E98FEF7BFFEC4F841
:101B50001C7FC4F8207F2E9809F0DEF9B0EE480A09
:101B60002E98FEF7CAFEC4F8709F61992E9809F06E
:101B7000F0FEC646BEE80F000DF5856CACE80F0020
:101B80009BE803008CE803000DF585612E98FEF7B5
:101B9000C3FE2B46A022002100952F98FEF7F2FDF0
:101BA000F0EE480AB0EE480A2F98FEF78FFEC4F810
:101BB000B07FC4F8B47F2F9809F0AEF9B0EE480AB0
:101BC0002F98FEF79AFE41F20403609944F80390BF
:101BD0002F9809F0BEFEC646BEE80F000DF5886CD2
:101BE000ACE80F009BE803008CE803000DF588616A
:101BF0002F98FEF791FEA02200212B460095039816
:101C0000FEF7C0FDF0EE480AB0EE480A0398FEF772
:101C10005DFE41F244030398E75041F24803E75068
:101C200009F07AF9B0EE480A0398FEF766FE41F231
:101C300098035F9944F80390039809F08AFEC6461A
:101C4000BEE80F000DF58B6CACE80F009BE80300BD
:101C50008CE803000DF58B610398FEF75DFEA02272
:101C600000212B4600950498FEF78CFDF0EE480A03
:101C7000B0EE480A0498FEF729FE41F2D803049812
:101C8000E75041F2DC03E75009F046F9B0EE480AAC
:101C90000498FEF732FE41F22C135E9944F803904B
:101CA000049809F056FEC646BEE80F000DF58E6C8E
:101CB000ACE80F009BE803008CE803000DF58E6193
:101CC0000498FEF729FEA02200212B4600950598D6
:101CD000FEF758FDF0EE480AB0EE480A0598FEF708
:101CE000F5FD41F26C130598E75041F27013E7508F
:101CF00009F012F9B0EE480A0598FEF7FEFD04F56A
:101D00008E535D99C3F80090059809F022FEC646EF
:101D1000BEE80F000DF5916CACE80F009BE80300E6
:101D20008CE803000DF591610598FEF7F5FDA02202
:101D300000212B4600950698FEF724FDF0EE480A98
:101D4000B0EE480A0698FEF7C1FD04F590530698D8
:101D50001F6041F204234FF0F00BE75009F0DCF86C
:101D6000B0EE480A0698FEF7C8FD41F254234899A0
:101D700044F803900698C14609F0EBFDB9E80F005E
:101D80000DF594670FC796E8030087E803000DF58B
:101D900094610698FEF7C0FDA02200212B46009515
:101DA0000798FEF7EFFCF0EE480AB0EE480A0798F5
:101DB000FEF78CFD41F294234FF48067E75041F227
:101DC00098230798E75009F0A7F8B0EE480A07985B
:101DD000FEF793FD41F2E8235C9944F803A00798CD
:101DE00009F0B7FDC646BEE80F000DF5976CACE8EC
:101DF0000F0096E803008CE803000DF59761079843
:101E0000FEF78AFDA02200212B4600950898FEF7D8
:101E1000B9FCF0EE480AB0EE480A0898FEF756FD05
:101E200041F228330898E75041F22C33E75009F08B
:101E300073F8B0EE480A0898FEF75FFD41F27C3374
:101E40005B9944F803A0089809F083FDC646BEE8F4
:101E50000F000DF59A6CACE80F0096E803008CE8D3
:101E600003000DF59A610898FEF756FDA0220021A7
:101E70002B4600953098FEF785FCF0EE480AB0EE50
:101E8000480A3098FEF722FD41F2BC333098E75003
:101E900004F59E531F6009F03FF8B0EE480A3098F1
:101EA000FEF72BFD41F210435A9944F803A03098F5
:101EB00009F04FFDC646BEE80F000DF59D6CACE87D
:101EC0000F0096E803008CE803000DF59D61309843
:101ED000FEF722FDA02200212B4600950998FEF76F
:101EE00051FCF0EE480AB0EE480A0998FEF7EEFC05
:101EF00041F250430998E75041F25443E75009F04A
:101F00000BF8B0EE480A0998FEF7F7FC41F2A4433B
:101F1000599944F803A0099809F01BFDC646BEE88C
:101F20000F000DF5A06CACE80F0096E803008CE8FC
:101F300003000DF5A0610998FEF7EEFCA022002138
:101F40002B4600950A98FEF71DFCF0EE480AB0EE0D
:101F5000480A0A98FEF7BAFC41F2E4430A98E750AF
:101F600041F2E843E75008F0D7FFB0EE480A0A987C
:101F7000FEF7C3FC41F23853589944F803A00A987D
:101F800009F0E7FCC646BEE80F000DF5A36CACE80F
:101F90000F0096E803008CE803000DF5A3610A9892
:101FA000FEF7BAFCA02200212B4600950B98FEF705
:101FB000E9FBF0EE480AB0EE480A0B98FEF786FC03
:101FC00041F278530B98E75041F27C53E75008F008
:101FD000A3FFB0EE480A0B98FEF78FFC41F2CC53FA
:101FE000579944F803A00B9809F0B3FCC646BEE825
:101FF0000F000DF5A66CACE80F0096E803008CE826
:1020000003000DF5A6610B98FEF786FCA0220021C7
:102010002B4600950C98FEF7B5FBF0EE480AB0EEA3
:10202000480A0C98FEF752FC41F20C630C98E750FA
:1020300041F21063E75008F06FFFB0EE480A0C98C9
:10204000FEF75BFC04F5B3535699C3F800A00C9857
:1020500009F07FFCC646BEE80F000DF5A96CACE8A0
:102060000F0096E803008CE803000DF5A9610C98B9
:10207000FEF752FCA02200212B4600950D98FEF79A
:1020800081FBF0EE480AB0EE480A0D98FEF71EFC00
:1020900004F5B5530D981F6041F2A463E75008F0B2
:1020A0003BFFB0EE480A0D98FEF727FC41F2F463BF
:1020B000479944F803A00D9809F04BFCC646BEE8CA
:1020C0000F000DF5AC6CACE80F0096E803008CE84F
:1020D00003000DF5AC610D98FEF71EFCA022002157
:1020E0002B4600950E98FEF74DFBF0EE480AB0EE39
:1020F000480A0E98FEF7EAFB41F234730E98E75057
:1021000041F23873E75008F007FFB0EE480A0E9826
:10211000FEF7F3FB41F28873559944F803A00E983B
:1021200009F017FCC646BEE80F000DF5AF6CACE831
:102130000F0096E803008CE803000DF5AF610E98E0
:10214000FEF7EAFBA02200212B4600950F98FEF730
:1021500019FBF0EE480AB0EE480A0F98FEF7B6FBFE
:1021600041F2C8730F98E75041F2CC73E75008F082
:10217000D3FEB0EE480A0F98FEF7BFFB41F61C03F2
:10218000549944F803A00F9809F0E3FBC646BEE853
:102190000F000DF5B26CACE80F0096E803008CE878
:1021A00003000DF5B2610F98FEF7B6FBA0220021E7
:1021B0002B4600953198FEF7E5FAF0EE480AB0EEAE
:1021C000480A3198FEF782FB41F65C033198E750EC
:1021D00004F5C3531F6008F09FFEB0EE480A319823
:1021E000FEF78BFB41F6B003539944F803A03198F6
:1021F00009F0AFFBC646BEE80F000DF5B56CACE8C4
:102200000F0096E803008CE803000DF5B5613198E6
:10221000FEF782FBA02200212B4600951098FEF7C6
:10222000B1FAF0EE480AB0EE480A1098FEF74EFBFD
:1022300041F6F0031098E75041F6F403E75008F038
:102240006BFEB0EE480A1098FEF757FB41F64413B8
:10225000529944F803A0109809F07BFBC646BEE8EB
:102260000F000DF5B86CACE80F0096E803008CE8A1
:1022700003000DF5B8611098FEF74EFBA022002177
:102280002B4600951198FEF77DFAF0EE480AB0EE65
:10229000480A1198FEF71AFB41F684131198E7508B
:1022A00041F68813E75008F037FEB0EE480A11985F
:1022B000FEF723FB41F6D813519944F803A0119877
:1022C00009F047FBC646BEE80F000DF5BB6CACE855
:1022D0000F0096E803008CE803000DF5BB61119830
:1022E000FEF71AFBA02200212B4600951298FEF75C
:1022F00049FAF0EE480AB0EE480A1298FEF7E6FAFC
:1023000041F618231298E75041F61C230DF5BE66DE
:10231000E75008F001FEB0EE480A1298FEF7EDFA19
:1023200041F66C23509944F803A0129809F011FB70
:10233000C446BCE80F000FC699E8030086E8030016
:102340000DF5BE611298FEF7E7FAA02200212B4698
:1023500000951398FEF716FAF0EE480AB0EE480A18
:102360001398FEF7B3FA41F6AC231398E75041F601
:10237000B0230DF5C165E75008F0CEFDB0EE480A78
:102380001398FEF7BAFA04F5D8534F99C3F800A092
:10239000139809F0DEFAB8E80F000FC599E80300BA
:1023A00085E803000DF5C1611398FEF7B5FA002228
:1023B00011463398CDF800B04FF4A073FEF7E2F960
:1023C00041F634334FF4A057E75041F638334FF419
:1023D000F05944F8039041F63C332022E75041F68F
:1023E00048330025E25004F5DA534FF4345A1D60A7
:1023F00041F64433339844F803A0B42108F036FF83
:1024000041F664334FF0FF36E6504E99339809F0A9
:10241000A0FA04F5D8534FF0780883F832802A46A2
:1024200029463498CDF800B04FF4A073FEF7AAF90E
:1024300002E000BF00DDFFFF41F698334FF4706209
:10244000E75041F69C33349844F8039004F5DD538B
:10245000B4211A6041F6AC332022E25041F6A43395
:10246000E55041F6A83344F803A008F0FFFE41F61A
:10247000C8334D99E650349809F06BFA04F5DB53F4
:102480002A4683F8368029463598CDF800B04FF4B7
:10249000A073FEF777F941F6FC334FF42062E75062
:1024A00004F5E0533598C3F8009041F60443B42195
:1024B000E25041F610432022E25041F60843E55035
:1024C00041F60C4344F803A008F0D0FE41F62C433B
:1024D0004C99E650359809F03CFA04F5DE532A464B
:1024E00083F83A8029463698CDF800B04FF4A073AF
:1024F000FEF748F904F5E3534FF4A0621F6041F67C
:102500006443369844F8039041F66843B421E2509E
:1025100041F674432022E25041F66C43E55041F607
:10252000704344F803A008F0A1FE41F690434B9994
:10253000E650369809F00DFA04F5E1532A4683F87F
:102540003E8029461498CDF800B04FF4A073FEF7F2
:1025500019F941F61C534A99E650149809F0F9F913
:102560004FF47C6A4A463946149809F0D5FC524625
:1025700014984FF4C06109F0DAFC14980121FEF7B9
:10258000F4F91498012109F0DDFC04F5E4532A461E
:1025900083F8428029463298CDF800B04FF4A073FA
:1025A000FEF7F0F841F6A8534999E650329809F041
:1025B000D0F94A463946329809F0AEFC4FF4206211
:1025C0003946329809F0B3FC32980121FEF7CDF973
:1025D0003298012109F0B6FC04F5E9532A4683F844
:1025E0002E8029461598CDF800B04FF4A073FEF761
:1025F000C9F841F634634699E650159809F0A9F9EF
:102600004A4639461598CE4F09F086FC5246159831
:102610004FF4085109F08BFC15980121FEF7A5F93C
:102620001598012109F08EFC04F5ED533F9883F8CD
:102630003A8010230093482219238521FEF7A2F83F
:1026400004F5F3534FF07F48C3F800804B223798CE
:102650008621FEF78AF841F694634FF00C09E650A4
:1026600004F5F35378A91D87379878970123ADF8BF
:10267000E4310AF031F94598CDF800900F23732228
:102680008D21FEF77FF841F6C863732244F803807A
:1026900038988D21FEF769F841F6FC6378A9E65079
:1026A00004F5F6534B4438989D860223ADF8E43187
:1026B00078970AF011F94098CDF800900F239B22EB
:1026C0008D21FEF75FF841F630739B2244F80380BA
:1026D00039988D21FEF749F841F6647378A9E650E0
:1026E00004F5F9533998A3F848500323ADF8E431C1
:1026F00078970AF0F1F84198CDF800900F23C422A2
:102700008D21FEF73FF841F69873C52244F8038007
:102710003A988E21FEF729F841F6CC7378A9E65055
:1027200004F5FC533A98A3F850500423ADF8E43173
:1027300078970AF0D1F842223B98A221FEF715F8CB
:1027400042F2080378A9E65004F5FE533B98A3F83B
:102750004C500523ADF8E43178970AF0BDF87322A8
:102760003C984FF48A71FEF700F842F2440378A9CE
:10277000E65004F500533C98A3F848500623ADF802
:10278000E43178970AF0A8F873223D981F21FDF7ED
:10279000ECFF04F5025378A91E6004F501533D983F
:1027A000A3F84450251D0723ADF8E43178970AF0CB
:1027B00093F84399284607F09FF84499284607F074
:1027C0009BF83E99284607F097F84299284607F06B
:1027D00093F81699284607F08FF81799284607F0BE
:1027E0008BF81899284607F087F81999284607F0BA
:1027F00083F81A99284607F07FF81B99284607F0B6
:102800007BF81C99284607F077F81D99284607F0B1
:1028100073F81E99284607F06FF81F99284607F0AD
:102820006BF82099284607F067F82199284607F0A9
:1028300063F82299284607F05FF82399284607F0A5
:102840005BF82499284607F057F82599284607F0A1
:1028500053F82699284607F04FF82799284607F09D
:102860004BF82899284607F047F82999284607F099
:1028700043F82A99284607F03FF82B99284607F095
:102880003BF82C99284607F037F82D99284607F091
:1028900033F82E99284607F02FF82F99284607F08D
:1028A0002BF80399284607F027F80499284607F0E3
:1028B00023F80599284607F01FF80699284607F0DF
:1028C0001BF80799284607F017F80899284607F0DB
:1028D00013F83099284607F00FF80999284607F0B1
:1028E0000BF80A99284607F007F80B99284607F0D5
:1028F00003F80C99284606F0FFFF0D99284606F0CC
:10290000FBFF0E99284606F0F7FF0F99284606F0C0
:10291000F3FF3199284606F0EFFF1099284606F09C
:10292000EBFF1199284606F0E7FF1299284606F0BA
:10293000E3FF1399284606F0DFFF3399284601E0AC
:1029400070F8010806F0D8FF3499284606F0D4FF45
:102950003599284606F0D0FF3699284606F0CCFF78
:102960001499284606F0C8FF3299284606F0C4FF9D
:102970001599284606F0C0FF3F99284606F0BCFF8F
:102980003799284606F0B8FF4599284606F0B4FF67
:102990003899284606F0B0FF4099284606F0ACFF6B
:1029A0003999284606F0A8FF4199284606F0A4FF69
:1029B0003A99284606F0A0FF3B99284606F09CFF6E
:1029C0003C99284606F098FF28463D9906F094FF6A
:1029D00020460DF2246DBDEC028BBDE8F08F00BFE8
:1029E000704770474160704770470123037270471A
:1029F0007047704710B4C468416862100346E4072A
:102A000001EB02009B6848BF8A585DF8044B48BF41
:102A1000D358184743682BB183682BB9C06800F0BE
:102A200001007047184670470120704710B50C210F
:102A300004461BF0F1FE204610BD10B54FF4AC71FA
:102A400004461BF0E9FE204610BD10B510210446D7
:102A50001BF0E2FE204610BD10B50BF041FD0368EF
:102A6000BDE810401B6B1847F8B5044617460E46E4
:102A70000BF056FD144BC4F854611C60134E144BFC
:102A8000236000253068134BC4F83851C4F83C511A
:102A9000C4F84031C4F84451C4F84851C4F84C510A
:102AA000C4F85071036829469B689847284600F08F
:102AB000F9FA336893F876200AB1D86C00B99868AF
:102AC00013F02FF92046F8BD0C520120A05101202F
:102AD0005CFA010844FA0108064BC0F848310023AB
:102AE000C0F84C3100F5A073C0F84401C0F83C3187
:102AF000704700BF392C00082DE9F0470746906861
:102B0000DDF820A0994603681B6A88461546984759
:102B100043F24B33984205D8414B424AA3214248E5
:102B20001BF086FE686803681B6A98470F2803D865
:102B30003E4B3C4AA421F2E7E86803681B6A9847C9
:102B40000B2803D83A4B374AA521E8E70BF0C8FC1D
:102B50000BF0CCFCD9F8000010B10368DB68984793
:102B6000D9F8000010B103681B689847386810B1A5
:102B700003685B699847D8F8000010B103685B6888
:102B80009847386810B103681B689847D8F8000068
:102B900010B103689B689847E868036800215B6A86
:102BA0009847044620B1002343600372214B036021
:102BB000A868036800215B6A9847064608B1FDF7DC
:102BC00013FD6868036800215B6A9847054610B1E9
:102BD0003146FDF7EBFCC9F80040C8F800503E60F4
:102BE000E5B12B1DCAF80030C5F808A03368F563BD
:102BF0003046DB6898472B6828461B689847214673
:102C000030460DF00BF9236820461B69984723686E
:102C100020465B6998472846BDE8F0872B46E1E7E8
:102C2000BCFA0108D1FC01084AFB01088BFB010832
:102C30002EFC0108A0FA010807B5D0F85431009322
:102C4000D0F85021044B00F59C710448FFF754FF65
:102C500003B05DF804FB00BF00520120FC510120CD
:102C600013B5002249B102AB019203F8052D0268A9
:102C7000946801AAA04702B010BD0846FBE740894E
:102C800070478089704780887047837980881844AE
:102C900080B27047C07900F07F007047C079C009EA
:102CA0007047006A7047406A704770478B88806938
:102CB0000A68DB0A50F823001044704710B5C2B10F
:102CC000137BB3B1547BD27A240204F4E06414433E
:102CD000C26998B202EB840213888B4202D192F946
:102CE000020010BD05D8013880B204320028F3D1AB
:102CF000F7E70020F5E710B5282104461BF08CFD0E
:102D0000204610BD30B589B00446BDF85050069538
:102D1000BDF84C5005959DF8405004959DF83C50E9
:102D200003959DF8385002959DF8345001959DF813
:102D3000305000950CF000FC064B2360119BA36102
:102D4000129BE361159B2362169B6362204609B0C8
:102D500030BD00BFE0FD010830B5164D2C78BFF343
:102D60005B8F14F001048DB020D128461BF02CFDA0
:102D7000E0B13F230793104B0693104B1049089482
:102D80000122CDE904430423CDE90132CDE9094410
:102D90000A23039400940B48FFF7B4FF28461BF066
:102DA0001FFD094A094907481BF031FD05480DB0D0
:102DB00030BD00BF7C010020B8390208B4390208D8
:102DC000603702088001002000000020AB2C0008C2
:102DD00030B5164D2C78BFF35B8F14F001048DB025
:102DE00021D128461BF0F0FCE8B13F230793104B9C
:102DF0000693104B10490894CDE9044301220423A3
:102E0000CDE90132CDE9094408220C230394009452
:102E10000A48FFF777FF28461BF0E2FC084A0949F9
:102E200006481BF0F4FC05480DB030BDA801002099
:102E3000AC390208C039020874380208AC0100201D
:102E400000000020AB2C000830B5164D2C78BFF3E5
:102E50005B8F14F001048DB020D128461BF0B4FC28
:102E6000E0B13F230793104B0693104B1049089491
:102E70000122CDE904430423CDE90132CDE909441F
:102E80002823039400940B48FFF73CFF28461BF0CF
:102E9000A7FC094A094907481BF0B9FC05480DB0D1
:102EA00030BD00BFD4010020B0390208C439020887
:102EB000E4380208D801002000000020AB2C0008F4
:102EC00030B5164D2C78BFF35B8F14F001048DB034
:102ED00021D128461BF078FCE8B13F230793104B23
:102EE0000693104B10490894CDE9044301220423B2
:102EF000CDE9013200930D221423CDE90944039456
:102F00000A48FFF7FFFE28461BF06AFC084A0949F9
:102F100006481BF07CFC05480DB030BD00020020C7
:102F2000BC390208C8390208F4380208040200203B
:102F300000000020AB2C0008704710B504210446A7
:102F40001BF06AFC204610BD08B5032913D8DFE842
:102F500001F002060A0E00F019F8006808BD00F042
:102F600015F84068FAE700F011F88068F6E700F01D
:102F70000DF8C068F2E70020F0E700000048704755
:102F800044FE010801207047082070470048704740
:102F90002C02002010B5FFF793FF064C2060FFF7CE
:102FA00053FF6060FFF7D8FEA060FFF711FFE060FD
:102FB00010BD00BF2C020020002070470020704789
:102FC0000EB403B503AB002153F8042B01930CF0AE
:102FD000E9F802B05DF804EB03B070470CB407B534
:102FE00004AB53F8042B01930CF0DCF803B05DF84C
:102FF00004EB02B07047000010B5436C044673B395
:10300000038F2BB9184B194AC02119481BF010FC2B
:10301000C38E00EB43035B8C0BB30DF06DFC238F71
:10302000012B03D8134B144AC521EEE7E28E531C43
:103030009BB2092B194688BFA3F10A0104EB410199
:1030400040F63F10498C814209D10A2B04EB420221
:1030500028BF002304EB4303508C5884518420463E
:10306000BDE810400DF02CBB58FE010885FF01089B
:1030700061FE0108A5FE0108B3FE01080DF0D8BAF3
:1030800010B586B002AC84E806001A460AAB059378
:103090000193099B00932146089B0AF09EFD06B010
:1030A00010BD000038B5D8B9114B12481B68124941
:1030B000BBB11A689C681A4402605A681A440A60D4
:1030C0001C446CB10D4B00221A80FFF75FFF0546D0
:1030D000FFF75AFF0A4B1C600A4B1D600A4B188011
:1030E00038BD0A4B03600A4B0B600A4B1C68E8E7CB
:1030F0003C02002040020020440200204802002040
:10310000105201201852012014520120009204088C
:10311000CC910408FC910408044B1B6853F821006F
:10312000034B1B6803EB4000704700BF44020020C4
:1031300040020020012380F8741080F87530704739
:103140000020704700207047836B0BB1084618477A
:1031500070474FF6FF707047406803689B691847D7
:1031600070477047034B902283F85A2383F8582303
:10317000704700BF00E100E0094A0A49D3680A48E5
:10318000C3F30A03013B9BB20B801169C1F30A012F
:10319000013901801364536B43F00103536370479B
:1031A000006801404C0200204A020020014B986A4E
:1031B000704700BF84680140024B0122996243F8C6
:1031C000602C70478468014038B5044606F03DFE27
:1031D00023681D6E0BF084F901462046A84723683A
:1031E000054AD3F88450A2F5163100232046A8479B
:1031F000002384F84A3038BD005802D008B531B9F0
:103200000A4B0B4A0B484FF42B711BF011FBC0E922
:103210000F1200320849436418BF01220A700033BC
:10322000064A18BF0123137008BD00BF93000208AF
:103230004D010208CB0002089C5101209D51012044
:1032400008B5094B1B888B4203D8084B1B88934257
:1032500005D9074B074A08489E211BF0E9FA074B9E
:103260001980074B1A8008BD92510120945101200A
:10327000300002080A010208CB0002089851012020
:103280009A51012006F092BD10B5044607F0DEFB0E
:1032900023682046D3F8A430BDE81040184790F8C2
:1032A00077301BB1406803681B68184718467047A1
:1032B00010B590F8744090F834100C4B8C421A788A
:1032C00009D03AB90A4A0B491488088810800C8042
:1032D00001221A7010BD002AFCD0054A0549148845
:1032E000088810800C800022F3E700BF965101206F
:1032F0009251012094510120034B4FF080629A605B
:103300004FF080729A60704700E100E0084B4FF088
:103310008062C3F88820BFF34F8FBFF36F8F4FF0E9
:103320008072C3F88820BFF34F8FBFF36F8F704751
:1033300000E100E010B5134B134A1B6C1188134CCD
:103340008B4213D1124B198803F044FC226892F887
:103350006630013382F8663000F06AFA206807F0C0
:1033600075FB0020BDE8104000F06BBC03F032FCA0
:10337000002000F067FC20680368BDE810401B6A6D
:10338000184700BF006801404C020020A0510120F6
:103390004A02002003685B6C1847002070470368EE
:1033A0009B6A184740F26F307047000010B5074C19
:1033B000074B2360204603F07FF8064B2361064B42
:1033C0006361064B4FF080629A6010BD6454012027
:1033D00000B00240FD330008E133000800E100E0E6
:1033E00008B5034A034B044836211BF021FA00BFFD
:1033F00014020208CA2402089B010208024B1B683F
:10340000586803685B691847A0510120084B10B544
:1034100003600446074803F01DF9074B4FF0806234
:10342000C3F88820BFF34F8FBFF36F8F204610BDC6
:10343000CC0102086454012000E100E010B504460C
:10344000FFF7E4FF20464FF442611BF0E5F9204608
:1034500010BD0000044B1B6893F876200AB1D86CAD
:1034600000B99868704700BFA05101202DE9F341D1
:103470000D68202D0C4600F0A180402D00F09E80AC
:103480002A1F56425641B5F5807F00F09980A5F578
:1034900000735D425D41FFF7DDFF03681B6A9847DB
:1034A0002368402B00F0A48000F28C80042B00F0F5
:1034B0009880202B00F09C80102814BF4FF0010C46
:1034C0004FF0020C0021514BA28AB4F81A80D3F8B5
:1034D00000E059601028A8EB020814BF012702275A
:1034E0009F60C3F80C80DEF8002022F440321143C4
:1034F000CEF80010D3F800E0C3F82CC0DEF834108A
:1035000021F007013943CEF83410DEF8402022F4D0
:103510007F5222F03F0242EA0802CEF84020228B7E
:10352000A18A521A9A620EB9002D34D0227FFF2A46
:103530001FBF02221A63227F5A6304BF00221A634C
:1035400005B3227FE16810284FEA026053D14FF0A3
:103550001F0EC1F3C422C2EB0222B2FBFEFC01EA41
:103560000E02C2EB0222B2FBFEF2024342EA0C421E
:10357000C1F34511C1EB01213F20B1FBF0F142EA5B
:1035800001225A63A18A628B2048521AC3E9062796
:10359000002103F02BF901211C4803F027F9A38A2D
:1035A000E28A06B955B3CDE900322369616817484C
:1035B0001A4602F0CEFF02B0BDE8F081012666E7B0
:1035C000012568E7B3F5807F06D0B3F5007F7FF46F
:1035D00073AF4FF0090C01E04FF00A0C4FF40031CB
:1035E00071E7102814BF4FF0010C4FF0020CF5E703
:1035F0004FF0000CF2E701435963C3E700926168A2
:103600002269024802F086FFD5E700BF645401201A
:10361000F7B50D46FFF71EFF03681B6A9847102891
:10362000EB68297F6FD103F01F02C2EB02221F203B
:10363000B2FBF0F4C3F3C42244EA0164C2EB0222F9
:10364000C3F34513B2FBF0F244EA0244C3EB032395
:103650003F22B3FBF2F3022244EA03242B682C48F6
:103660006F8B082B08BF4FF40036AB8A18BF4FF49E
:103670004036C0E90162FF1A0368C760196821F487
:10368000403131431960D0F800C0DCF8341021F02B
:1036900007011143CCF83410DCF8403023F47F5399
:1036A00023F03F033B43B6F5003FCCF840301FD139
:1036B0000123C0E90C340923C362A98A6B8B5B1A0E
:1036C000C0E90632002103F091F80121104803F00F
:1036D0008DF8B6F5003FAB8AEA8A0DD129690C480E
:1036E000CDE900320B460A4602F033FF03B0F0BDCD
:1036F0000023C2628362E8E7009221462A690448F7
:1037000002F008FFF2E743EA01640122A6E700BFE6
:103710006454012070B505462C460A4B0C30002637
:1037200068602E726E7244F8203B6022214607F0DA
:10373000C3FA05F54263E6602034A342FBD1284674
:1037400070BD00BFCC010208012108B50022084667
:1037500005F0C4F8064B4FF0FF31186005F014F97E
:1037600000220421012005F083F9024B186008BDF6
:10377000540200205002002008B5074B186828B9F1
:10378000064B074A074831211BF052F84FF0FF3132
:10379000BDE8084005F0F8B85402002047020208CE
:1037A000BE0202085802020808B5064B186828B97C
:1037B000054B064A06483A211BF03AF8BDE8084096
:1037C00005F01EB9540200204702020881020208D7
:1037D0005802020808B5074B186828B9064B074A73
:1037E000074847211BF024F80021BDE8084005F0F8
:1037F000CBB800BF5402002047020208FB020208B7
:103800005802020808B5064B186828B9054B064A45
:10381000064854211BF00CF8BDE8084005F0F0B84C
:1038200054020020470202083B0302085802020823
:10383000044B186820B100231A46034905F05EB90D
:10384000704700BF500200200400002013B5084C50
:10385000206858B100231A4601A905F091F94FF0EC
:10386000FF33002201A9206805F08AF902B010BDDB
:1038700050020020704770477047012070470C20AD
:1038800070470C2303FB0100083070470C2303FB37
:103890000100083070470120704743F24C307047F8
:1038A00043F24C3303FB01000830704743F24C33C2
:1038B00003FB01000830704701207047102070475B
:1038C00000EB01100830704700EB01100830704722
:1038D0000846FFF701B9000010B5034B036004462A
:1038E00005F08EFF204610BDF003020810B5044617
:1038F000FFF7F2FF204614211AF08EFF204610BD7C
:1039000010B5034B0360044605F07AFF204610BD56
:10391000BC03020810B50446FFF7F2FF204643F24D
:1039200054311AF079FF204610BD000010B5034B4A
:103930000360044605F064FF204610BD88030208BA
:1039400010B50446FFF7F2FF204618211AF064FF75
:10395000204610BD10B5084B0360044600F54E50DC
:10396000FFF7BAFF04F12C00FFF7CAFF04F11400BF
:10397000FFF7DCFF204610BD2404020810B5044602
:10398000FFF7E8FF204643F2F0411AF045FF2046DA
:1039900010BD00002DE9F341FFF7F0FA0546FFF7EF
:1039A000F1FA0024014623462846224600940DF0F1
:1039B000A7FA264B264A274D1A602046FFF772FBCE
:1039C00025480DF0DFF92B78BFF35B8FDB0737D489
:1039D00028461AF0F9FE002832D0204C204B2360F4
:1039E00004F54E5707F1180604F1140004F12C08F1
:1039F0006060C4F80880E760266105F003FF194B9A
:103A00006361404605F0FEFE174BE362384605F061
:103A1000F9FE164B3B6007F11400FCF7EFFD224660
:103A200007F114013046FCF71BFE3046FFF754F84F
:103A300028461AF0D5FE0E4A0E4920461AF0E7FE37
:103A40000D4802B0BDE8F04100F0D0B81C52012092
:103A5000EC43002058020020080000205C020020F7
:103A60002404020888030208BC030208F0030208C9
:103A7000000000205539000870430020014800F084
:103A8000B7B800BF7043002010B5042104461AF0F7
:103A9000C3FE204610BD10B5782104461AF0BCFEC6
:103AA000204610BD10B57C2104461AF0B5FE204614
:103AB00010BD0000F8B5394C394D3A4F3A4B3B49EF
:103AC0002B60224628461AF0A2FE394E3846FFF7F0
:103AD00021FE2246374938461AF099FE304610F04A
:103AE000D5FA2246344930461AF091FE224633492F
:103AF00033481AF08CFE3348334941663349C56078
:103B000000230122324D0385C0E90176C0E9043368
:103B1000C0E90633C0E9083380F82A30C36203865F
:103B2000C0E90E33C0E9103380F8483080F84920EE
:103B300080F84A3080F84B30C0E91333C0E91533C0
:103B4000C0E9173380F8683080F8693080F86A304F
:103B500080F86B3080F86C300860F02129801D4DB2
:103B6000036729801C4D80F874304FF4A0712980C0
:103B70001A4D80F875302980194980F876300B701D
:103B8000184B80F8772080F8782080F83420036084
:103B900022461549BDE8F8401AF039BE0000002061
:103BA0004C370020503700200805020875380008FF
:103BB000F04300200D34000877380008392F000842
:103BC000080000207043002001000001A0510120E6
:103BD0009251012098510120945101209A510120C5
:103BE000965101203804020879380008FFF7ECBA32
:103BF00008B503680446DB6F9847236820465B6F6F
:103C00009847FFF723FE23682046DB6E984729205C
:103C100000F088FBFFF71AFE23682046DB6E98470A
:103C2000F8E7FFF7C3BAFFF7C7BAFFF72BBBFFF7F9
:103C300099BAFFF761BBFFF769BBFFF79DBA06F0C2
:103C4000AFB870477047704738B50C4B0C4C1880B4
:103C50000C4B822019806368984740F61103984204
:103C60000AD1094D23682C60822098472B68822056
:103C7000DB689847002038BD0120FCE7684400203D
:103C8000240000206A4400206C4400204FF4A071FE
:103C9000F020FFF7D9BF0000F7B52C4D2B68044684
:103CA0001B698220984780B2208000284BD02B6867
:103CB0000DF106025B6901A982209847BDF8063024
:103CC000A3F5B4739BB20B22B3FBF2F333B1204ADA
:103CD00012889A423CBF02F1FF339BB2BDF8042028
:103CE00040F6B8318A4295BFC2F57162C2F56D6285
:103CF0000E320832ADF80420BDF804100F22B1FBDB
:103D0000F2F131B1134A12888A423CBF02F1FF310D
:103D100089B2114E114D30682F6882B2814288BF3E
:103D20008A1AB8B298BF521ABB428CBF181AC01A6E
:103D300092B280B20244052AC4BF31602B6033685E
:103D400063802B68A38003B0F0BD00BF6C440020EB
:103D50006A4400206844002070440020744400201D
:103D600037B568460D461446FFF796FFBDF80000CC
:103D700030B1BDF802302B60BDF804302360012063
:103D800003B030BD054BD3F8882042F47002C3F86D
:103D900088204FF000629A60704700BF00ED00E09D
:103DA00030B5014689B00022362001F059FE362098
:103DB00001F08AFE0025154B02951A6C144C42F056
:103DC00010021A641B6C03F01003029301A903A8EC
:103DD000029B01F06BF801F059F80E4B236040F2A2
:103DE000E733E36040000C4BB0FBF3F00138606058
:103DF00020462561A56001F099F920B9204601F01F
:103E000074F809B030BD0120FBE700BF0038024064
:103E1000C45201200010004040420F0007B5064B7D
:103E200002A91B6821F8020D0122044802F0CEF815
:103E300003B05DF804FB00BF1400002058530120BC
:103E4000F0B53024A1B02246002108A81AF06BFD7D
:103E50001422002103A81AF066FD2246002114A8AE
:103E60001AF061FD0024224B01941A6C42F080523A
:103E70001A641B6C03F080530193019B1D4B029449
:103E80001A6842F440421A601B6803F440430293EC
:103E90000122029B4FF48033CDE9082302254FF421
:103EA0008003CDE90E5308274FF4A873042608A811
:103EB000CDE910731295139600F076FD0F23CDE92E
:103EC00003354FF4A0514FF48053CDE9061303A8F6
:103ED0000521059400F03CFFC023189314A84FF46B
:103EE000003314971A961D9302F0D4FE21B0F0BD52
:103EF000003802400070004080B59AB002F08AFE9F
:103F0000FFF79EFF142200210DA800241AF00BFDDC
:103F1000B44B00941A6BB448B44D42F020021A63BB
:103F20001A6B02F020020092009A01941A6B42F080
:103F300080021A631A6B02F080020192019A0294C5
:103F40001A6B42F004021A631A6B02F00402029226
:103F5000029A03941A6B42F001021A631A6B02F080
:103F600001020392039A04941A6B42F002021A634C
:103F70001A6B02F002020492049A05941A6B42F042
:103F800040021A631A6B02F040020592059A0694E9
:103F90001A6B42F010021A631A6B02F010020692BA
:103FA000069A07941A6B42F008021A631B6B03F01F
:103FB0000803079322460421079B01F02BFF2246AA
:103FC0004FF440518A4801F025FF012602274FF0A7
:103FD00004080DA984480F94CDE90D86109701F0CF
:103FE00033FE0DA94FF440538148CDE90D36CDE99C
:103FF0000F4701F029FE7F487F4B036002F078FFF6
:104000007E4A7F4B2C62C5E9002328464FF480434B
:10401000C5E90434C5E90244C5E9064401F076FA6D
:104020001021284601F0C4FC2146284601F0E2FC9C
:104030007448754984624FF48273C0E900134FF4E9
:1040400000751823C0E906530A23704DC362C0E906
:104050000244C0E90444C0E9084401F077FF6C4B16
:104060000D974FF0100CC5E900364023C5E904C395
:104070004FF4C073C5E906344FF40063C5E9083452
:104080004FF40053AB624FF0030A07230DA92846F3
:10409000CDE90E3810934FF00809C5E90248CDE983
:1040A00011A7139700F036FC4FF6FF7209A92846B6
:1040B000CDE90A96089409960C9400F04BFC304622
:1040C00002F0D4FD4FF6FF7209A92846CDE909791F
:1040D000CDE90B6400F03EFC4FF6FF7209A92846BB
:1040E000CDE909A9CDE90B8400F034FC4FF40C7341
:1040F0000893089B0C934FF6FF7209A92846CDE957
:1041000009890B9600F026FC40F26A51284600F01F
:1041100038FC342221460DEB02001AF004FC3D4D20
:104120003D4B2C61C5E900340923C5E905361D2343
:1041300040F20D1EC5E9073A40F24313C5E909E311
:1041400040F2171840F24713C5E90B83C5E9024452
:10415000AC8685F83640284602F036FCFF21F02276
:10416000CDE912144FF4806905214FF4A073CDE915
:104170000E24CDE91491CDE916420DA92246284618
:10418000CDE91037254D18930D94ADF864408DF8A6
:10419000664002F0F6FC224B2B601B6898472B68A8
:1041A000204DDB689847204BC5E90A47C5E90C4418
:1041B0002846C5E90034C5E9027402F07DF93146AC
:1041C000284602F013FB02F0A3FE04F0F7FA174AA8
:1041D0001748214604F02CFB164B186004F008FB2E
:1041E000FEE700BF003802400008024004530120EF
:1041F000000C0240B053012000300240005C00403F
:10420000A08601005853012000500140A454012011
:10421000400100A0B853012000680140784400200C
:104220004C0000206454012000B002403005020818
:10423000156F0008605401207047704710B586B0B4
:1042400006AC074B04F8012D1B68029301230A46B4
:10425000CDE900430146034801F008FA06B010BD5D
:1042600010000020045301207FB506AA002302F8A5
:10427000013D084B1B6802930123CDE900230A4648
:104280000146054801F086FA9DF8170007B05DF871
:1042900004FB00BF10000020045301201FB5084C90
:1042A00024680092CDE901340A46012301460548FD
:1042B00001F070FA003018BF012004B010BD00BF3B
:1042C000100000200453012002F0D0BC10B5064CB1
:1042D00000222046042101F09DFD204601220421F8
:1042E000BDE8104001F096BD0008024038B50B4C07
:1042F000054601224FF40051094801F08BFD0022D0
:104300000421204601F086FD2846FFF787FD204660
:1043100001220421BDE8384001F07CBD00080240C4
:10432000000C024038B50B4C054600224FF40051FA
:10433000094801F06FFD00220421204601F06AFDCA
:104340002846FFF76BFD204601220421BDE83840D6
:1043500001F060BD00080240000C0240F7B5144CAB
:10436000144D07460E4620460022042101F052FD5E
:1043700000224FF40051284601F04CFD3846FFF76B
:104380004DFD0D4B0D481B68324601A901F0B6FFEB
:10439000284601224FF40051019E01F03BFD2046CA
:1043A0000122042101F036FD304603B0F0BD00BF0C
:1043B00000080240000C0240140000205853012065
:1043C00002F054BC0268034B9A4201D102F03CBC9B
:1043D000704700BF001000407047FEE7FEE7FEE7B1
:1043E000FEE77047014800F095BD00BFC4520120B0
:1043F000014802F065BB00BFB8530120014802F03C
:1044000065B900BF6454012008B50A4B196802461B
:1044100009B9094919601868694602448A4206D9EF
:104420001AF032FA0C2303604FF0FF3008BD1A6017
:10443000FCE700BF7C4400202055012082B00E4BD9
:1044400000220092596C41F480415964596C01F486
:104450008041009100990192196C41F080511964DA
:104460001B6C03F080530193019B0F216FF001003F
:1044700002B001F0F5BA00BF003802400268094BF3
:104480009A4282B00BD100230193074B1A6B42F47E
:1044900080521A631B6B03F480530193019B02B09B
:1044A000704700BF003002400038024007B50F4B94
:1044B00002689A4216D10022A3F5F0430192196BCB
:1044C00041F4000119631B6B03F400030193052100
:1044D0005A20019B01F0C4FA5A2003B05DF804EBA6
:1044E00001F0F2BA03B05DF804FB00BF00B0024077
:1044F0000268064B9A4207D1054A136B23F4000366
:1045000013635A2001F0EEBA704700BF00B00240BA
:10451000003802402DE9F043044689B014220021FE
:1045200003A81AF000FA2268244B9A4243D1244C83
:10453000244800250095236B43F004032363236B79
:1045400003F004030093009B0195236B43F00103E8
:104550002363236B03F001030193019B4FF01209C6
:104560004FF400734FF001080327042603A9CDE997
:104570000339CDE90587079601F066FB4FF4807398
:1045800003A911480796CDE90339CDE9058701F064
:104590005BFB0295236C43F400032364236C03F458
:1045A00000030293029B236A43F400032362236AFD
:1045B00023F40003236209B0BDE8F083005C0040EF
:1045C000003802400008024000000240F0B50446F6
:1045D0008DB01422002107A81AF0A5F92268574BC4
:1045E0009A4240F0A88003F55043002500955A6C8C
:1045F000534842F080625A645A6C02F08062009222
:10460000009A01951A6B42F020021A631A6B02F0AD
:1046100020020192019A02951A6B42F001021A637C
:104620001A6B02F001020292029A03951A6B42F091
:1046300002021A631A6B02F002020392039A0495B3
:104640001A6B42F040021A631A6B02F040020492A5
:10465000049A05951A6B42F004021A631A6B02F071
:1046600004020592059A06951A6B42F008021A6335
:104670001B6B03F00803069302240E26069B0A9484
:104680004FF4806307A9CDE907340B9601F0DCFAFB
:1046900041F6580307A92B480B96CDE907340927A3
:1046A000CDE9095401F0D0FA032307A926480B9756
:1046B000CDE90734CDE9095401F0C6FA4FF470632F
:1046C00007A921480B96CDE90734CDE9095401F03B
:1046D000BBFA4FF40C6307A91C480B96CDE90734CD
:1046E000CDE9095401F0B0FAC02307A918480B9688
:1046F000CDE90734CDE9095401F0A6FA082307A94A
:1047000014480B96CDE90734CDE9095401F09CFA21
:104710004FF4A05307A90D480B97CDE90734CDE915
:10472000095401F091FA58202A46052101F098F920
:10473000582001F0C9F90DB0F0BD00BF006801407C
:104740000014024000000240000402400018024031
:1047500000080240000C024010B5044688B0142244
:10476000002103A81AF0DFF82268144B9A4223D1E3
:1047700003F56843002101915A6C114842F48012FC
:104780005A645A6C02F480120192019A02911A6BD7
:1047900042F020021A631B6B03F020030293029B7A
:1047A0004FF4607202230321CDE903230523CDE9F1
:1047B000061303A901F048FA08B010BD00500140EB
:1047C000001402402DE9F04186B01422002101A816
:1047D0001AF0A9F82B4B1C68002C4FD14FF00108A0
:1047E000C3F80080284B00949A6B284842EA0802DC
:1047F0009A639B6B03EA08030093022703260C25A8
:10480000009B01A94FF63F03CDE90137CDE90465CF
:1048100001F01AFA01A91E480595CDE90187CDE9F5
:10482000034601F011FA48F2331301A9194805951E
:10483000CDE90137CDE9034601F006FA4FF683735F
:1048400001A915480595CDE90137CDE9034601F0E9
:10485000FBF94CF2037301A910480595CDE9013726
:10486000CDE9034601F0F0F9602301A90C48059554
:10487000CDE90137CDE9034601F0E6F906B0BDE820
:10488000F08100BF80440020003802400014024044
:10489000000802400018024000100240000C0240D4
:1048A000000402400120704708B519F0EDFF1623FF
:1048B00003604FF0FF3008BD08B519F0E5FF16237F
:1048C0000360FEE770B50E4615460C46A31B9D42DD
:1048D00001DC284670BDAFF3008004F8010BF5E75A
:1048E00070B50E4615460C46A31B9D4201DC2846BA
:1048F00070BD14F8010BAFF30080F5E74FF0FF3007
:1049000070474FF400534B60002070470120704700
:104910000020704738B50D460446C8B190F82C30D9
:1049200003F0FF021BB980F82D20FFF74BFF022395
:1049300084F82C30211D206801F0E8F862682068B6
:10494000294601F019F9012384F82C30002038BDE4
:104950000120FCE738B5044690F82C00C0B20228CC
:104960000D460DD0022384F82C30206801F041F967
:104970002B68022B0CBF0523012384F82C30002068
:1049800038BD10B5044690F82C00C0B2022809D0FA
:10499000022384F82C30206801F050F9012384F8B8
:1049A0002C30002010BD00002DE9F341044608B969
:1049B000012041E00368DD0710D4236898075AD42A
:1049C00023681A0700F19C8023685B0700F1BA8016
:1049D000A069002840F01C8100202DE0A44B9A68BB
:1049E00002F00C02042A07D09A6802F00C02082A8E
:1049F0000AD15B68590207D59D4B1B689A03DCD529
:104A00006368002BD9D1D3E76268994BB2F5803F38
:104A100015D11A6842F480321A606368F3B102F06B
:104A20001FF9934D06462B689B03C6D402F018F974
:104A3000801B6428F7D9032002B0BDE8F081B2F5ED
:104A4000A02F1A6803D142F480221A60E1E722F411
:104A500080321A601A6822F48022DDE702F000F941
:104A6000834D06462B689F03A7D502F0F9F8801BFB
:104A70006428F7D9DFE77E4B9A6812F00C0F07D055
:104A80009A6802F00C02082A11D15B685E020ED40B
:104A9000774B1A68950702D5E268012A88D11A680F
:104AA000216922F0F80242EAC1021A6088E7E2684E
:104AB000704BB2B101221A6002F0D2F86C4D06467A
:104AC0002B68980707D52B68226923F0F80343EA7F
:104AD000C2032B6074E702F0C3F8801B0228EFD9F1
:104AE000A9E71A6002F0BCF8614D06462B689907E9
:104AF0007FF566AF02F0B4F8801B0228F6D99AE77A
:104B000062695D4B7AB101221A6002F0A9F8584D32
:104B100006466B6F9F073FF557AF02F0A1F8801B69
:104B20000228F6D987E71A6002F09AF8504D064637
:104B30006B6F98077FF548AF02F092F8801B022850
:104B4000F6D978E74A4B1A6C12F080522BD10192B9
:104B50001A6C42F080521A641B6C03F0805301936C
:104B6000019B0126454D2B68D9051ED5A268404BF7
:104B7000012A2AD11A6F42F001021A67A368002B9A
:104B800037D002F06DF83A4D074641F288382B6F66
:104B90009B0728D5002E3FF41BAF354A136C23F03A
:104BA0008053136414E70026DCE72B6843F480731A
:104BB0002B6002F055F807462B68DA05D6D402F0D0
:104BC0004FF8C01B0228F7D935E7052A1A6F03D121
:104BD00042F004021A67CDE722F001021A671A6F49
:104BE00022F00402C9E702F03BF8C01B4045CED9D1
:104BF00021E702F035F81E4D074641F288382B6F49
:104C00009807C7D502F02CF8C01B4045F7D912E72A
:104C1000174DAB6803F00C03082B46D0184E002349
:104C20000228336034D102F01BF807462B68990143
:104C300028D4D4E907321343626A43EA8213E26A52
:104C400043EA0263A26A0A4C5208013A43EA024369
:104C50006B600123336002F003F8054623689A0174
:104C60003FF5BAAE01F0FCFF401B0228F6D9E2E6A0
:104C70000038024000004742800E4742007000406A
:104C80006000474201F0ECFFC01B0228CED9D2E6FB
:104C900001F0E6FF04462B689B017FF59DAE01F015
:104CA000DFFF001B0228F6D9C5E601283FF4C4AE99
:104CB0006868E36900F480029A427FF479AE226A60
:104CC00000F03F0393427FF473AE626A47F6C0730D
:104CD000034093427FF46CAEA26A00F440339342E7
:104CE0007FF466AEE36A00F07060C01A18BF01205E
:104CF000A2E600BF08B513498B6803F00C03042B30
:104D000003D0082B03D0104800E0104808BD4A68C3
:104D10004B68496813F4800314BF0C480A48C1F378
:104D2000881118BF002302F03F02A1FB0001FBF72E
:104D30005FFA044B5B68C3F3014301335B00B0FBD4
:104D4000F3F0E3E7003802400024F40000127A0098
:104D50002DE9F0410D46044610B90120BDE8F0816F
:104D6000454B1A6802F00F028A422AD323689E0735
:104D70002FD42368D90743D43F4B1A6802F00F029F
:104D8000AA4268D823685A076ED423681B0707D540
:104D90003A4A2169936823F4604343EAC10393606C
:104DA000FFF7A8FF354B364A9B68C3F30313D35C68
:104DB000D840344B1860344B1868FEF7F1FF0020E0
:104DC000CCE7CAB21A701B6803F00F038B42C4D140
:104DD000CCE7580741BF294A936843F4E0539360F6
:104DE0002368264A13F0080F1EBF936843F46043FC
:104DF00093609368A16823F0F0030B439360B8E7D6
:104E000062681E4B012A1CD11B6813F4003FA4D01A
:104E10001A4EB36823F003031343B36001F020FF7D
:104E200041F288380746B368626803F00C03B3EBBD
:104E3000820FA1D001F014FFC01B4045F3D903201D
:104E40008CE7911E01291B6802D813F0007FDEE772
:104E500013F0020FDBE7EAB21A701B6803F00F03CE
:104E6000AB427FF47AAF8DE7044AE168936823F49C
:104E7000E0530B43936088E7003C02400038024057
:104E8000180502080C0000201C000020044B054AF5
:104E90009B68C3F38223D35C034A1068D8407047F1
:104EA00000380240280502080C0000200F23036090
:104EB0000B4B9A6802F0030242609A6802F0F0021B
:104EC00082609A6802F4E052C2609B68DB0803F4D7
:104ED000E0530361034B1B6803F00F030B60704743
:104EE00000380240003C024070470268D36843F03B
:104EF0000103D36003689A6802F00702062A1EBF06
:104F00001A6842F001021A6000207047704770472B
:104F10007047704710B503681A69910704460FD5AA
:104F2000DA6892070CD56FF002021A610123037749
:104F300003689B699B077AD0FFF7E9FF002323777B
:104F400023681A69500711D5DA6851070ED56FF03A
:104F500004021A610223237723689B6913F4407FBC
:104F600020466AD0FFF7D3FF0023237723681A690E
:104F7000120710D5DA6810070DD56FF008021A6114
:104F8000042323772368DB69990720465BD0FFF76A
:104F9000BEFF0023237723681A69D20611D5DA6889
:104FA000D0060ED56FF010021A610823237723680C
:104FB000DB6913F4407F20464BD0FFF7A8FF0023A6
:104FC000237723681A69D10708D5DA68D20705D58F
:104FD0006FF001021A612046FFF7F4F923681A699D
:104FE000100608D5DA68110605D56FF080021A613F
:104FF000204600F021FD23681A69520608D5DA68B8
:10500000500605D56FF040021A612046FFF781FF78
:1050100023681A69910622D5DA6892061FD56FF0C7
:1050200020021A612046BDE8104000F004BDFFF7E1
:105030006DFF2046FFF76CFF80E7FFF767FF204614
:10504000FFF766FF90E7FFF761FF2046FFF760FF7D
:105050009FE7FFF75BFF2046FFF75AFFAFE710BD62
:10506000304A0368904212D0B0F1804F0FD0A2F5C1
:105070007C4290420BD002F58062904207D002F54C
:105080008062904203D002F57842904219D14A687A
:1050900023F070031343234A904229D0B0F1804F8C
:1050A00026D0A2F57C42904222D002F58062904246
:1050B0001ED002F5806290421AD002F578429042EA
:1050C00016D0194A904213D002F5806290420FD058
:1050D00002F5806290420BD0A2F59832904207D040
:1050E00002F58062904203D002F58062904203D1C3
:1050F000CA6823F4407313434A6923F080031343BF
:1051000003608B68C3620B688362064B984203D0CE
:1051100003F58063984201D10B6903630123436166
:10512000704700BF000001400040014010B5044638
:10513000A0B190F83D3003F0FF021BB980F83C208D
:10514000FFF7D2FE022384F83D302068211DFFF7CF
:1051500087FF012384F83D30002010BD0120FCE7CB
:1051600001684B6913F480634FF0000210D06FF4B4
:1051700080634B612023026380F83D3080F83E203D
:10518000036C80F83C2043F0040303640120704763
:10519000184670472DE9F0410446164698468FB2EE
:1051A0002568686937EA000018D06B695A0517D579
:1051B0002B6843F400732B6023686FF480625A619C
:1051C00000232022236384F83D2084F83E30226CA3
:1051D00042F00402226484F83C300120BDE8F081F2
:1051E000731CDED001F03CFDA0EB0800B04201D8FA
:1051F000002ED5D100232022236384F83D2084F89B
:105200003E30226C42F02002E4E770B504460D46C1
:10521000164623685B695B0701D5002070BD2046F8
:10522000FFF79EFFA8B96A1CF3D001F019FD801B9F
:10523000A84201D8002DECD100232022236384F85A
:105240003D2084F83E30226C84F83C3042F020024D
:1052500022640120E2E770B504460D461646206838
:10526000436913F0400301D0002010E04269D206E8
:105270000ED56FF0100242612022236384F83D2096
:1052800084F83E30226C226484F83C30012070BDEA
:1052900001F0E6FC801BA84201D8002DDFD10023DD
:1052A0002022236384F83D2084F83E30226C42F0B3
:1052B0002002E8E72DE9F843089E044690461F4681
:1052C0004FEA11498DB22168B9F1010F0CBF4B694A
:1052D0008B6935EA03030CBF01230023984501D0F5
:1052E000002016E07B1CEFD001F0BAFC801BB84216
:1052F00001D8002FE7D100232022236384F83D202A
:1053000084F83E30226C84F83C3042F02002226463
:105310000120BDE8F88370B504460D4616462368A3
:105320005B691B0601D5002070BD2046FFF718FF02
:10533000A8B96A1CF3D001F093FC801BA84201D8E5
:10534000002DECD100232022236384F83D2084F833
:105350003E30226C84F83C3042F02002226401206E
:10536000E2E700002DE9FF41154602680B9E9846D2
:10537000136843F4807313600F460A9B0096002263
:105380004FF001110446FFF795FF236838B11B6801
:10539000DB0502D54FF40073236403200AE007F015
:1053A000FE071F610A9A194933462046FFF7F2FEAD
:1053B00018B1012004B0BDE8F081236803905A6958
:1053C00003929B69039332460A99039B2046FFF799
:1053D000A2FF40B1236C042B01BF2268136843F481
:1053E00000731360E5E7B8F1010F236802D1EDB255
:1053F0001D61DFE72A0A1A610A9932462046FFF743
:105400008AFF0028E6D12368F1E700BF020001000F
:105410002DE9FF41164602680B9D9846136843F438
:10542000806313600268136843F4807313600F464F
:105430000A9B009500224FF001110446FFF73AFF46
:10544000236848B11B68DB0502D54FF40073236461
:10545000032004B0BDE8F081FFB207F0FE021A613C
:1054600029490A9A2B462046FFF794FE08B10120ED
:10547000EFE7236803905A6903929B6903932A46D6
:105480000A99039B2046FFF746FF40B1236C042B8B
:1054900001BF2268136843F400731360E7E7B8F1B3
:1054A000010F236825D1F6B21E612A460A992046CB
:1054B000FFF731FF02460028E8D121680B6843F46A
:1054C00080730B6020460A9B00954FF00111FFF797
:1054D000F1FE23680028B5D147F001071F610A9A41
:1054E00009492B462046FFF755FE003018BF012022
:1054F000AFE7320A1A610A992A462046FFF70BFFE6
:105500000028C3D12368CEE70200010070B504462D
:1055100008B9012070BD90F83D3003F0FF021BB9BF
:1055200080F83C20FEF7F6FF2268242384F83D3003
:10553000136823F0010313602268136843F40043E7
:1055400013602268136823F400431360FFF79EFC86
:10555000424B62689A4294BF414B424B98428CBF87
:1055600000230123002BD4D122683F495368B0FBAC
:10557000F1F123F03F030B4353606668374B256816
:105580009E4288BF4FF496732A6A8ABF4B434B1CD6
:105590004FF47A7122F03F0284BFB3FBF1F3013381
:1055A00013432B6221686368CA692C4D22F44F4271
:1055B000AB4222F0FF0200F1FF3035D85B00B0FBB8
:1055C000F3F0431CC3F30B03042B38BF0423134332
:1055D000CB612168D4E907300A68034322F0C00296
:1055E00013430B602168D4E903038A6822F4034261
:1055F000034322F0FF0213438B602168D4E9053096
:10560000CA68034322F0FF021343CB602268136889
:1056100043F00103136000202023206484F83D3010
:10562000206384F83E0075E7A56855B903EB430392
:10563000B0FBF3F0431CC3F30B036BB143F4004323
:10564000C5E719256B43B0FBF3F0431CC3F30B0311
:1056500013B143F44043BAE70123B8E7A086010041
:105660007F841E00FF083D0040420F002DE9F743F4
:10567000044699460F4690460C9E01F0F1FA94F8C4
:105680003D30202B054603D0022003B0BDE8F08357
:105690000090192301223D492046FFF70BFE002808
:1056A000F2D194F83C30012BEED0012384F83C3049
:1056B00023681A68D2075EBF1A6842F001021A60B6
:1056C0002268136823F400631360212384F83D30BB
:1056D000402384F83E30002323640A9B6362BDF8B4
:1056E0002C306385638D2385294BE362CDE900650A
:1056F0004B46424639462046FFF734FE00282DD05F
:105700000120C2E7FFF707FE40B1236C042B01BF65
:105710002268136843F400731360F1E7626A236838
:1057200012781A61616A628D4B1C6362238D013AA3
:1057300092B2013B62859BB2226823855069400783
:105740000CD55BB14B781361636A01336362238DBF
:10575000013B2385638D013B9BB26385238D2A46E4
:1057600031462046002BCDD1FFF74FFD0028CCD18C
:105770002268136843F400731360202384F83D30DB
:1057800084F83C0084F83E007FE700BF0200100070
:105790000000FFFF2DE9F043044687B099460D460F
:1057A0009046109F01F05CFA94F83D30202B06469D
:1057B00004D00225284607B0BDE8F08300901923E5
:1057C000012278492046FFF775FD0028F1D194F8B1
:1057D0003C30012BEDD0012384F83C3023681A685B
:1057E000D0075EBF1A6842F001021A60226813688F
:1057F00023F400631360222384F83D30402384F8AF
:105800003E30002323640E9B6362BDF83C30638509
:10581000638D2385644BE3622946CDE900764B46D0
:1058200042462046FFF7F4FD054608B10125C1E7D1
:10583000228D2368B2B902905A6902929A69029243
:10584000029A1A6842F400721A60DFF86081238DB0
:10585000002B2FD1202284F83D2084F83C3084F89E
:105860003E30A7E7012A0BD11A6822F480621A6041
:10587000236803905A6903929A690392039AE0E7B6
:10588000022A10D11A6822F480621A602268136812
:1058900043F400631360236804905A6904929B697F
:1058A0000493049BD1E705905A6905929B6905937F
:1058B000059BCAE7032B58D8012B15D13246394630
:1058C0002046FFF7C8FC0028B0D123681A69636A34
:1058D0001A70636A01336362238D013B2385638DF4
:1058E000013B9BB26385B2E7022B00963B464FF02B
:1058F0000002414620461AD1FFF7DCFC002895D172
:105900002268136843F40073136023681A69636A9A
:105910001A70626A531C6362238D013B2385638D79
:10592000013B9BB2638523681B695370D1E7FFF786
:10593000C1FC024600287FF479AF21680B6823F48C
:1059400080630B6023681969636A1970636A009643
:1059500001336362238D013B2385638D013B9BB241
:10596000638541463B462046C6E7324639462046D7
:10597000FFF771FC00287FF459AF23681A69636A46
:105980001A70626A531C6362238D013B2385638D09
:10599000013B9BB263852368596949077FF557AF7F
:1059A000C2E700BF020010000000FFFF040001007A
:1059B00010B590F83D30DBB2202B19D104682422B9
:1059C00080F83D20226822F0010222600468626AA9
:1059D00022F0100262620468626A11436162016827
:1059E0000A6842F001020A6080F83D30002010BDD4
:1059F0000220FCE730B590F83D20D2B2202A18D121
:105A00000568242380F83D302C6824F001042C60C4
:105A10000468656A4FF6F0732B400B439BB26362D8
:105A200001680B6843F001030B6080F83D20002003
:105A300030BD0220FCE7704770470000074AD3687A
:105A400023F4E0631B041B0C43F0BF63000243F428
:105A5000003300F4E0600343D360704700ED00E0E2
:105A600070B5174BDC68C4F30224C4F10705042D9C
:105A700004F1040328BF04254FF0FF36062B06FA75
:105A800005F38CBF033C002421EA0303A34006FA7C
:105A900004F422EA0404002843EA0403A8BF00F146
:105AA00060404FEA0313BCBF00F00F00054ADBB2B1
:105AB000AABF00F56140135480F8003370BD00BFE9
:105AC00000ED00E014ED00E0002808DB42090123AE
:105AD00000F01F0003FA00F0014B43F8220070476A
